{
  "_format": "hh-sol-artifact-1",
  "contractName": "MilestoneRoyalty",
  "sourceName": "contracts/MilestoneRoyalty.sol",
  "abi": [
    {
      "inputs": [
        {
          "internalType": "address",
          "name": "_oracle",
          "type": "address"
        },
        {
          "internalType": "address",
          "name": "_usdcToken",
          "type": "address"
        }
      ],
      "stateMutability": "nonpayable",
      "type": "constructor"
    },
    {
      "anonymous": false,
      "inputs": [
        {
          "indexed": false,
          "internalType": "string",
          "name": "songId",
          "type": "string"
        },
        {
          "indexed": false,
          "internalType": "uint256",
          "name": "milestone",
          "type": "uint256"
        }
      ],
      "name": "MilestoneReached",
      "type": "event"
    },
    {
      "anonymous": false,
      "inputs": [
        {
          "indexed": false,
          "internalType": "string",
          "name": "songId",
          "type": "string"
        },
        {
          "indexed": false,
          "internalType": "address",
          "name": "recipient",
          "type": "address"
        },
        {
          "indexed": false,
          "internalType": "uint256",
          "name": "amount",
          "type": "uint256"
        }
      ],
      "name": "RoyaltyPaid",
      "type": "event"
    },
    {
      "anonymous": false,
      "inputs": [
        {
          "indexed": false,
          "internalType": "string",
          "name": "songId",
          "type": "string"
        },
        {
          "indexed": false,
          "internalType": "string",
          "name": "newIpfsHash",
          "type": "string"
        },
        {
          "indexed": false,
          "internalType": "address[]",
          "name": "newCollaborators",
          "type": "address[]"
        },
        {
          "indexed": false,
          "internalType": "uint256[]",
          "name": "newShares",
          "type": "uint256[]"
        }
      ],
      "name": "SongEdited",
      "type": "event"
    },
    {
      "anonymous": false,
      "inputs": [
        {
          "indexed": false,
          "internalType": "string",
          "name": "songId",
          "type": "string"
        },
        {
          "indexed": true,
          "internalType": "address",
          "name": "creator",
          "type": "address"
        },
        {
          "indexed": false,
          "internalType": "address[]",
          "name": "collaborators",
          "type": "address[]"
        }
      ],
      "name": "SongRegistered",
      "type": "event"
    },
    {
      "anonymous": false,
      "inputs": [
        {
          "indexed": false,
          "internalType": "string",
          "name": "songId",
          "type": "string"
        },
        {
          "indexed": false,
          "internalType": "uint256",
          "name": "newTotal",
          "type": "uint256"
        }
      ],
      "name": "StreamsUpdated",
      "type": "event"
    },
    {
      "anonymous": false,
      "inputs": [
        {
          "indexed": true,
          "internalType": "address",
          "name": "listener",
          "type": "address"
        },
        {
          "indexed": false,
          "internalType": "uint256",
          "name": "amount",
          "type": "uint256"
        }
      ],
      "name": "Subscribed",
      "type": "event"
    },
    {
      "anonymous": false,
      "inputs": [
        {
          "indexed": true,
          "internalType": "address",
          "name": "user",
          "type": "address"
        },
        {
          "indexed": false,
          "internalType": "enum MilestoneRoyalty.Role",
          "name": "role",
          "type": "uint8"
        }
      ],
      "name": "UserRegistered",
      "type": "event"
    },
    {
      "inputs": [
        {
          "internalType": "string",
          "name": "songId",
          "type": "string"
        },
        {
          "internalType": "string",
          "name": "newIpfsHash",
          "type": "string"
        },
        {
          "internalType": "address[]",
          "name": "newCollaborators",
          "type": "address[]"
        },
        {
          "internalType": "uint256[]",
          "name": "newShares",
          "type": "uint256[]"
        }
      ],
      "name": "editSong",
      "outputs": [],
      "stateMutability": "nonpayable",
      "type": "function"
    },
    {
      "inputs": [
        {
          "internalType": "string",
          "name": "songId",
          "type": "string"
        }
      ],
      "name": "getSongDetails",
      "outputs": [
        {
          "internalType": "address",
          "name": "",
          "type": "address"
        },
        {
          "internalType": "string",
          "name": "",
          "type": "string"
        },
        {
          "internalType": "uint256",
          "name": "",
          "type": "uint256"
        },
        {
          "internalType": "uint256",
          "name": "",
          "type": "uint256"
        }
      ],
      "stateMutability": "view",
      "type": "function"
    },
    {
      "inputs": [
        {
          "internalType": "address",
          "name": "",
          "type": "address"
        }
      ],
      "name": "isSubscribed",
      "outputs": [
        {
          "internalType": "bool",
          "name": "",
          "type": "bool"
        }
      ],
      "stateMutability": "view",
      "type": "function"
    },
    {
      "inputs": [],
      "name": "owner",
      "outputs": [
        {
          "internalType": "address",
          "name": "",
          "type": "address"
        }
      ],
      "stateMutability": "view",
      "type": "function"
    },
    {
      "inputs": [],
      "name": "payoutPerMilestone",
      "outputs": [
        {
          "internalType": "uint256",
          "name": "",
          "type": "uint256"
        }
      ],
      "stateMutability": "view",
      "type": "function"
    },
    {
      "inputs": [
        {
          "internalType": "address",
          "name": "user",
          "type": "address"
        },
        {
          "internalType": "enum MilestoneRoyalty.Role",
          "name": "_role",
          "type": "uint8"
        }
      ],
      "name": "registerAccount",
      "outputs": [],
      "stateMutability": "nonpayable",
      "type": "function"
    },
    {
      "inputs": [
        {
          "internalType": "address",
          "name": "creator",
          "type": "address"
        },
        {
          "internalType": "string",
          "name": "songId",
          "type": "string"
        },
        {
          "internalType": "string",
          "name": "ipfsHash",
          "type": "string"
        },
        {
          "internalType": "address[]",
          "name": "collaborators",
          "type": "address[]"
        },
        {
          "internalType": "uint256[]",
          "name": "shares",
          "type": "uint256[]"
        }
      ],
      "name": "registerSong",
      "outputs": [],
      "stateMutability": "nonpayable",
      "type": "function"
    },
    {
      "inputs": [
        {
          "internalType": "address",
          "name": "_oracle",
          "type": "address"
        }
      ],
      "name": "setOracle",
      "outputs": [],
      "stateMutability": "nonpayable",
      "type": "function"
    },
    {
      "inputs": [
        {
          "internalType": "string",
          "name": "",
          "type": "string"
        }
      ],
      "name": "songs",
      "outputs": [
        {
          "internalType": "address",
          "name": "creator",
          "type": "address"
        },
        {
          "internalType": "string",
          "name": "ipfsHash",
          "type": "string"
        },
        {
          "internalType": "uint256",
          "name": "totalStreams",
          "type": "uint256"
        },
        {
          "internalType": "uint256",
          "name": "nextMilestone",
          "type": "uint256"
        },
        {
          "internalType": "bool",
          "name": "isRegistered",
          "type": "bool"
        }
      ],
      "stateMutability": "view",
      "type": "function"
    },
    {
      "inputs": [],
      "name": "streamOracle",
      "outputs": [
        {
          "internalType": "address",
          "name": "",
          "type": "address"
        }
      ],
      "stateMutability": "view",
      "type": "function"
    },
    {
      "inputs": [],
      "name": "subscribePlatform",
      "outputs": [],
      "stateMutability": "nonpayable",
      "type": "function"
    },
    {
      "inputs": [],
      "name": "subscriptionFee",
      "outputs": [
        {
          "internalType": "uint256",
          "name": "",
          "type": "uint256"
        }
      ],
      "stateMutability": "view",
      "type": "function"
    },
    {
      "inputs": [
        {
          "internalType": "string",
          "name": "songId",
          "type": "string"
        },
        {
          "internalType": "uint256",
          "name": "newTotalStreams",
          "type": "uint256"
        }
      ],
      "name": "updateStreamCount",
      "outputs": [],
      "stateMutability": "nonpayable",
      "type": "function"
    },
    {
      "inputs": [],
      "name": "usdcToken",
      "outputs": [
        {
          "internalType": "contract IERC20",
          "name": "",
          "type": "address"
        }
      ],
      "stateMutability": "view",
      "type": "function"
    },
    {
      "inputs": [
        {
          "internalType": "address",
          "name": "",
          "type": "address"
        }
      ],
      "name": "userRoles",
      "outputs": [
        {
          "internalType": "enum MilestoneRoyalty.Role",
          "name": "",
          "type": "uint8"
        }
      ],
      "stateMutability": "view",
      "type": "function"
    }
  ],
  "bytecode": "0x6080604052624c4b406005556298968060065534801561001e57600080fd5b506040516133803803806133808339818101604052810190610040919061016c565b336000806101000a81548173ffffffffffffffffffffffffffffffffffffffff021916908373ffffffffffffffffffffffffffffffffffffffff16021790555081600160006101000a81548173ffffffffffffffffffffffffffffffffffffffff021916908373ffffffffffffffffffffffffffffffffffffffff16021790555080600260006101000a81548173ffffffffffffffffffffffffffffffffffffffff021916908373ffffffffffffffffffffffffffffffffffffffff16021790555050506101ac565b600080fd5b600073ffffffffffffffffffffffffffffffffffffffff82169050919050565b60006101398261010e565b9050919050565b6101498161012e565b811461015457600080fd5b50565b60008151905061016681610140565b92915050565b6000806040838503121561018357610182610109565b5b600061019185828601610157565b92505060206101a285828601610157565b9150509250929050565b6131c5806101bb6000396000f3fe608060405234801561001057600080fd5b50600436106100f55760003560e01c806374d5e10011610097578063b92ae87c11610066578063b92ae87c14610264578063c900a77114610294578063e0a50147146102c7578063efcd126c146102e3576100f5565b806374d5e100146101de5780637adbf9731461020e5780638da5cb5b1461022a578063b36388fa14610248576100f5565b80634adec55a116100d35780634adec55a146101545780634ca31526146101705780636a7f8e8e1461018c5780636ffdd0cd146101c0576100f5565b806302389591146100fa5780630aa0a1751461011857806311eac85514610136575b600080fd5b6101026102ed565b60405161010f9190611a6d565b60405180910390f35b610120610313565b60405161012d9190611aa1565b60405180910390f35b61013e610319565b60405161014b9190611b1b565b60405180910390f35b61016e60048036038101906101699190611e73565b61033f565b005b61018a60048036038101906101859190611f4a565b61065d565b005b6101a660048036038101906101a19190612035565b610aa1565b6040516101b7959493929190612118565b60405180910390f35b6101c8610ba2565b6040516101d59190611aa1565b60405180910390f35b6101f860048036038101906101f39190612172565b610ba8565b6040516102059190612216565b60405180910390f35b61022860048036038101906102239190612172565b610bc8565b005b610232610c9a565b60405161023f9190611a6d565b60405180910390f35b610262600480360381019061025d9190612256565b610cbe565b005b61027e60048036038101906102799190612172565b610f85565b60405161028b9190612296565b60405180910390f35b6102ae60048036038101906102a99190612035565b610fa5565b6040516102be94939291906122b1565b60405180910390f35b6102e160048036038101906102dc91906122fd565b61115c565b005b6102eb611378565b005b600160009054906101000a900473ffffffffffffffffffffffffffffffffffffffff1681565b60055481565b600260009054906101000a900473ffffffffffffffffffffffffffffffffffffffff1681565b60078460405161034f9190612395565b908152602001604051809103902060060160009054906101000a900460ff166103ad576040517f08c379a00000000000000000000000000000000000000000000000000000000081526004016103a4906123f8565b60405180910390fd5b6007846040516103bd9190612395565b908152602001604051809103902060000160009054906101000a900473ffffffffffffffffffffffffffffffffffffffff1673ffffffffffffffffffffffffffffffffffffffff163373ffffffffffffffffffffffffffffffffffffffff1614806104755750600160009054906101000a900473ffffffffffffffffffffffffffffffffffffffff1673ffffffffffffffffffffffffffffffffffffffff163373ffffffffffffffffffffffffffffffffffffffff16145b6104b4576040517f08c379a00000000000000000000000000000000000000000000000000000000081526004016104ab90612464565b60405180910390fd5b80518251146104f8576040517f08c379a00000000000000000000000000000000000000000000000000000000081526004016104ef906124d0565b60405180910390fd5b6000805b825181101561053a57828181518110610518576105176124f0565b5b60200260200101518261052b919061254e565b915080806001019150506104fc565b506064811461057e576040517f08c379a0000000000000000000000000000000000000000000000000000000008152600401610575906125ce565b60405180910390fd5b8360078660405161058f9190612395565b908152602001604051809103902060010190816105ac91906127f0565b50826007866040516105be9190612395565b908152602001604051809103902060040190805190602001906105e2929190611938565b50816007866040516105f49190612395565b908152602001604051809103902060050190805190602001906106189291906119c2565b507f8649f246a97d4769e49146739515ad5d2f1f7a2300bb343228328c7d48e3cba28585858560405161064e9493929190612a3e565b60405180910390a15050505050565b8473ffffffffffffffffffffffffffffffffffffffff163373ffffffffffffffffffffffffffffffffffffffff1614806106e45750600160009054906101000a900473ffffffffffffffffffffffffffffffffffffffff1673ffffffffffffffffffffffffffffffffffffffff163373ffffffffffffffffffffffffffffffffffffffff16145b610723576040517f08c379a000000000000000000000000000000000000000000000000000000000815260040161071a90612464565b60405180910390fd5b6002808111156107365761073561219f565b5b600360008773ffffffffffffffffffffffffffffffffffffffff1673ffffffffffffffffffffffffffffffffffffffff16815260200190815260200160002060009054906101000a900460ff1660028111156107955761079461219f565b5b146107d5576040517f08c379a00000000000000000000000000000000000000000000000000000000081526004016107cc90612aeb565b60405180910390fd5b6007846040516107e59190612395565b908152602001604051809103902060060160009054906101000a900460ff1615610844576040517f08c379a000000000000000000000000000000000000000000000000000000000815260040161083b90612b57565b60405180910390fd5b8051825114610888576040517f08c379a000000000000000000000000000000000000000000000000000000000815260040161087f906124d0565b60405180910390fd5b6000805b82518110156108ca578281815181106108a8576108a76124f0565b5b6020026020010151826108bb919061254e565b9150808060010191505061088c565b506064811461090e576040517f08c379a0000000000000000000000000000000000000000000000000000000008152600401610905906125ce565b60405180910390fd5b6040518060e001604052808773ffffffffffffffffffffffffffffffffffffffff168152602001858152602001600081526020016103e881526020018481526020018381526020016001151581525060078660405161096d9190612395565b908152602001604051809103902060008201518160000160006101000a81548173ffffffffffffffffffffffffffffffffffffffff021916908373ffffffffffffffffffffffffffffffffffffffff16021790555060208201518160010190816109d791906127f0565b5060408201518160020155606082015181600301556080820151816004019080519060200190610a08929190611938565b5060a0820151816005019080519060200190610a259291906119c2565b5060c08201518160060160006101000a81548160ff0219169083151502179055509050508573ffffffffffffffffffffffffffffffffffffffff167f2443f6a4ef7132f620f4b9ea72c26fd850f40f0289453e47d9b347793d6bde9b8685604051610a91929190612b77565b60405180910390a2505050505050565b6007818051602081018201805184825260208301602085012081835280955050505050506000915090508060000160009054906101000a900473ffffffffffffffffffffffffffffffffffffffff1690806001018054610b009061261d565b80601f0160208091040260200160405190810160405280929190818152602001828054610b2c9061261d565b8015610b795780601f10610b4e57610100808354040283529160200191610b79565b820191906000526020600020905b815481529060010190602001808311610b5c57829003601f168201915b5050505050908060020154908060030154908060060160009054906101000a900460ff16905085565b60065481565b60036020528060005260406000206000915054906101000a900460ff1681565b60008054906101000a900473ffffffffffffffffffffffffffffffffffffffff1673ffffffffffffffffffffffffffffffffffffffff163373ffffffffffffffffffffffffffffffffffffffff1614610c56576040517f08c379a0000000000000000000000000000000000000000000000000000000008152600401610c4d90612c20565b60405180910390fd5b80600160006101000a81548173ffffffffffffffffffffffffffffffffffffffff021916908373ffffffffffffffffffffffffffffffffffffffff16021790555050565b60008054906101000a900473ffffffffffffffffffffffffffffffffffffffff1681565b60006002811115610cd257610cd161219f565b5b600360008473ffffffffffffffffffffffffffffffffffffffff1673ffffffffffffffffffffffffffffffffffffffff16815260200190815260200160002060009054906101000a900460ff166002811115610d3157610d3061219f565b5b14610d71576040517f08c379a0000000000000000000000000000000000000000000000000000000008152600401610d6890612c8c565b60405180910390fd5b60016002811115610d8557610d8461219f565b5b816002811115610d9857610d9761219f565b5b1480610dc75750600280811115610db257610db161219f565b5b816002811115610dc557610dc461219f565b5b145b610e06576040517f08c379a0000000000000000000000000000000000000000000000000000000008152600401610dfd90612cf8565b60405180910390fd5b8173ffffffffffffffffffffffffffffffffffffffff163373ffffffffffffffffffffffffffffffffffffffff161480610e8d5750600160009054906101000a900473ffffffffffffffffffffffffffffffffffffffff1673ffffffffffffffffffffffffffffffffffffffff163373ffffffffffffffffffffffffffffffffffffffff16145b610ecc576040517f08c379a0000000000000000000000000000000000000000000000000000000008152600401610ec390612464565b60405180910390fd5b80600360008473ffffffffffffffffffffffffffffffffffffffff1673ffffffffffffffffffffffffffffffffffffffff16815260200190815260200160002060006101000a81548160ff02191690836002811115610f2e57610f2d61219f565b5b02179055508173ffffffffffffffffffffffffffffffffffffffff167f8e18574f8a7333e6a87112742a55853a643e2f0550f4e1a3a2c3f1bb2994441d82604051610f799190612216565b60405180910390a25050565b60046020528060005260406000206000915054906101000a900460ff1681565b60006060600080600785604051610fbc9190612395565b908152602001604051809103902060060160009054906101000a900460ff1661101a576040517f08c379a0000000000000000000000000000000000000000000000000000000008152600401611011906123f8565b60405180910390fd5b60078560405161102a9190612395565b908152602001604051809103902060000160009054906101000a900473ffffffffffffffffffffffffffffffffffffffff1660078660405161106c9190612395565b908152602001604051809103902060010160078760405161108d9190612395565b9081526020016040518091039020600201546007886040516110af9190612395565b9081526020016040518091039020600301548280546110cd9061261d565b80601f01602080910402602001604051908101604052809291908181526020018280546110f99061261d565b80156111465780601f1061111b57610100808354040283529160200191611146565b820191906000526020600020905b81548152906001019060200180831161112957829003601f168201915b5050505050925093509350935093509193509193565b600160009054906101000a900473ffffffffffffffffffffffffffffffffffffffff1673ffffffffffffffffffffffffffffffffffffffff163373ffffffffffffffffffffffffffffffffffffffff16146111ec576040517f08c379a00000000000000000000000000000000000000000000000000000000081526004016111e390612d8a565b60405180910390fd5b6007826040516111fc9190612395565b908152602001604051809103902060060160009054906101000a900460ff1661125a576040517f08c379a0000000000000000000000000000000000000000000000000000000008152600401611251906123f8565b60405180910390fd5b60078260405161126a9190612395565b90815260200160405180910390206002015481116112bd576040517f08c379a00000000000000000000000000000000000000000000000000000000081526004016112b490612df6565b60405180910390fd5b806007836040516112ce9190612395565b9081526020016040518091039020600201819055507f2080b9d646fc4f3f85f765956bb28c4ae2de4f39c23378d2a3ab727a8216823f8282604051611314929190612e16565b60405180910390a15b60078260405161132d9190612395565b90815260200160405180910390206003015460078360405161134f9190612395565b908152602001604051809103902060020154106113745761136f826116bf565b61131d565b5050565b6001600281111561138c5761138b61219f565b5b600360003373ffffffffffffffffffffffffffffffffffffffff1673ffffffffffffffffffffffffffffffffffffffff16815260200190815260200160002060009054906101000a900460ff1660028111156113eb576113ea61219f565b5b148061146657506002808111156114055761140461219f565b5b600360003373ffffffffffffffffffffffffffffffffffffffff1673ffffffffffffffffffffffffffffffffffffffff16815260200190815260200160002060009054906101000a900460ff1660028111156114645761146361219f565b5b145b6114a5576040517f08c379a000000000000000000000000000000000000000000000000000000000815260040161149c90612e92565b60405180910390fd5b600460003373ffffffffffffffffffffffffffffffffffffffff1673ffffffffffffffffffffffffffffffffffffffff16815260200190815260200160002060009054906101000a900460ff1615611532576040517f08c379a000000000000000000000000000000000000000000000000000000000815260040161152990612efe565b60405180910390fd5b600260009054906101000a900473ffffffffffffffffffffffffffffffffffffffff1673ffffffffffffffffffffffffffffffffffffffff166323b872dd33306005546040518463ffffffff1660e01b815260040161159393929190612f1e565b6020604051808303816000875af11580156115b2573d6000803e3d6000fd5b505050506040513d601f19601f820116820180604052508101906115d69190612f81565b611615576040517f08c379a000000000000000000000000000000000000000000000000000000000815260040161160c90612ffa565b60405180910390fd5b6001600460003373ffffffffffffffffffffffffffffffffffffffff1673ffffffffffffffffffffffffffffffffffffffff16815260200190815260200160002060006101000a81548160ff0219169083151502179055503373ffffffffffffffffffffffffffffffffffffffff167f4b90d6788928d63c1821907a6a8b95f40d26562d8fe41b105f7489db9966dfcb6005546040516116b59190611aa1565b60405180910390a2565b60006007826040516116d19190612395565b908152602001604051809103902090507f6171f3d843fbf91f613676b81052758b485d8816a1dfc4785f196db241554e05828260030154604051611716929190612e16565b60405180910390a160005b8160040180549050811015611916576000606483600501838154811061174a576117496124f0565b5b9060005260206000200154600654611762919061301a565b61176c919061308b565b9050600260009054906101000a900473ffffffffffffffffffffffffffffffffffffffff1673ffffffffffffffffffffffffffffffffffffffff1663a9059cbb8460040184815481106117c2576117c16124f0565b5b9060005260206000200160009054906101000a900473ffffffffffffffffffffffffffffffffffffffff16836040518363ffffffff1660e01b815260040161180b9291906130bc565b6020604051808303816000875af115801561182a573d6000803e3d6000fd5b505050506040513d601f19601f8201168201806040525081019061184e9190612f81565b61188d576040517f08c379a000000000000000000000000000000000000000000000000000000000815260040161188490613131565b60405180910390fd5b7fa4d0d876b730b913e8c4d9870a8e9fa0bbfdb2e1edb29278ec445c3640a17c3c848460040184815481106118c5576118c46124f0565b5b9060005260206000200160009054906101000a900473ffffffffffffffffffffffffffffffffffffffff168360405161190093929190613151565b60405180910390a1508080600101915050611721565b506103e881600301600082825461192d919061254e565b925050819055505050565b8280548282559060005260206000209081019282156119b1579160200282015b828111156119b05782518260006101000a81548173ffffffffffffffffffffffffffffffffffffffff021916908373ffffffffffffffffffffffffffffffffffffffff16021790555091602001919060010190611958565b5b5090506119be9190611a0f565b5090565b8280548282559060005260206000209081019282156119fe579160200282015b828111156119fd5782518255916020019190600101906119e2565b5b509050611a0b9190611a0f565b5090565b5b80821115611a28576000816000905550600101611a10565b5090565b600073ffffffffffffffffffffffffffffffffffffffff82169050919050565b6000611a5782611a2c565b9050919050565b611a6781611a4c565b82525050565b6000602082019050611a826000830184611a5e565b92915050565b6000819050919050565b611a9b81611a88565b82525050565b6000602082019050611ab66000830184611a92565b92915050565b6000819050919050565b6000611ae1611adc611ad784611a2c565b611abc565b611a2c565b9050919050565b6000611af382611ac6565b9050919050565b6000611b0582611ae8565b9050919050565b611b1581611afa565b82525050565b6000602082019050611b306000830184611b0c565b92915050565b6000604051905090565b600080fd5b600080fd5b600080fd5b600080fd5b6000601f19601f8301169050919050565b7f4e487b7100000000000000000000000000000000000000000000000000000000600052604160045260246000fd5b611b9d82611b54565b810181811067ffffffffffffffff82111715611bbc57611bbb611b65565b5b80604052505050565b6000611bcf611b36565b9050611bdb8282611b94565b919050565b600067ffffffffffffffff821115611bfb57611bfa611b65565b5b611c0482611b54565b9050602081019050919050565b82818337600083830152505050565b6000611c33611c2e84611be0565b611bc5565b905082815260208101848484011115611c4f57611c4e611b4f565b5b611c5a848285611c11565b509392505050565b600082601f830112611c7757611c76611b4a565b5b8135611c87848260208601611c20565b91505092915050565b600067ffffffffffffffff821115611cab57611caa611b65565b5b602082029050602081019050919050565b600080fd5b611cca81611a4c565b8114611cd557600080fd5b50565b600081359050611ce781611cc1565b92915050565b6000611d00611cfb84611c90565b611bc5565b90508083825260208201905060208402830185811115611d2357611d22611cbc565b5b835b81811015611d4c5780611d388882611cd8565b845260208401935050602081019050611d25565b5050509392505050565b600082601f830112611d6b57611d6a611b4a565b5b8135611d7b848260208601611ced565b91505092915050565b600067ffffffffffffffff821115611d9f57611d9e611b65565b5b602082029050602081019050919050565b611db981611a88565b8114611dc457600080fd5b50565b600081359050611dd681611db0565b92915050565b6000611def611dea84611d84565b611bc5565b90508083825260208201905060208402830185811115611e1257611e11611cbc565b5b835b81811015611e3b5780611e278882611dc7565b845260208401935050602081019050611e14565b5050509392505050565b600082601f830112611e5a57611e59611b4a565b5b8135611e6a848260208601611ddc565b91505092915050565b60008060008060808587031215611e8d57611e8c611b40565b5b600085013567ffffffffffffffff811115611eab57611eaa611b45565b5b611eb787828801611c62565b945050602085013567ffffffffffffffff811115611ed857611ed7611b45565b5b611ee487828801611c62565b935050604085013567ffffffffffffffff811115611f0557611f04611b45565b5b611f1187828801611d56565b925050606085013567ffffffffffffffff811115611f3257611f31611b45565b5b611f3e87828801611e45565b91505092959194509250565b600080600080600060a08688031215611f6657611f65611b40565b5b6000611f7488828901611cd8565b955050602086013567ffffffffffffffff811115611f9557611f94611b45565b5b611fa188828901611c62565b945050604086013567ffffffffffffffff811115611fc257611fc1611b45565b5b611fce88828901611c62565b935050606086013567ffffffffffffffff811115611fef57611fee611b45565b5b611ffb88828901611d56565b925050608086013567ffffffffffffffff81111561201c5761201b611b45565b5b61202888828901611e45565b9150509295509295909350565b60006020828403121561204b5761204a611b40565b5b600082013567ffffffffffffffff81111561206957612068611b45565b5b61207584828501611c62565b91505092915050565b600081519050919050565b600082825260208201905092915050565b60005b838110156120b857808201518184015260208101905061209d565b60008484015250505050565b60006120cf8261207e565b6120d98185612089565b93506120e981856020860161209a565b6120f281611b54565b840191505092915050565b60008115159050919050565b612112816120fd565b82525050565b600060a08201905061212d6000830188611a5e565b818103602083015261213f81876120c4565b905061214e6040830186611a92565b61215b6060830185611a92565b6121686080830184612109565b9695505050505050565b60006020828403121561218857612187611b40565b5b600061219684828501611cd8565b91505092915050565b7f4e487b7100000000000000000000000000000000000000000000000000000000600052602160045260246000fd5b600381106121df576121de61219f565b5b50565b60008190506121f0826121ce565b919050565b6000612200826121e2565b9050919050565b612210816121f5565b82525050565b600060208201905061222b6000830184612207565b92915050565b6003811061223e57600080fd5b50565b60008135905061225081612231565b92915050565b6000806040838503121561226d5761226c611b40565b5b600061227b85828601611cd8565b925050602061228c85828601612241565b9150509250929050565b60006020820190506122ab6000830184612109565b92915050565b60006080820190506122c66000830187611a5e565b81810360208301526122d881866120c4565b90506122e76040830185611a92565b6122f46060830184611a92565b95945050505050565b6000806040838503121561231457612313611b40565b5b600083013567ffffffffffffffff81111561233257612331611b45565b5b61233e85828601611c62565b925050602061234f85828601611dc7565b9150509250929050565b600081905092915050565b600061236f8261207e565b6123798185612359565b935061238981856020860161209a565b80840191505092915050565b60006123a18284612364565b915081905092915050565b7f536f6e67206e6f7420666f756e64000000000000000000000000000000000000600082015250565b60006123e2600e83612089565b91506123ed826123ac565b602082019050919050565b60006020820190508181036000830152612411816123d5565b9050919050565b7f4e6f7420617574686f72697a6564000000000000000000000000000000000000600082015250565b600061244e600e83612089565b915061245982612418565b602082019050919050565b6000602082019050818103600083015261247d81612441565b9050919050565b7f496e76616c696420646174610000000000000000000000000000000000000000600082015250565b60006124ba600c83612089565b91506124c582612484565b602082019050919050565b600060208201905081810360008301526124e9816124ad565b9050919050565b7f4e487b7100000000000000000000000000000000000000000000000000000000600052603260045260246000fd5b7f4e487b7100000000000000000000000000000000000000000000000000000000600052601160045260246000fd5b600061255982611a88565b915061256483611a88565b925082820190508082111561257c5761257b61251f565b5b92915050565b7f546f74616c2070657263656e74616765206d7573742062652031303000000000600082015250565b60006125b8601c83612089565b91506125c382612582565b602082019050919050565b600060208201905081810360008301526125e7816125ab565b9050919050565b7f4e487b7100000000000000000000000000000000000000000000000000000000600052602260045260246000fd5b6000600282049050600182168061263557607f821691505b602082108103612648576126476125ee565b5b50919050565b60008190508160005260206000209050919050565b60006020601f8301049050919050565b600082821b905092915050565b6000600883026126b07fffffffffffffffffffffffffffffffffffffffffffffffffffffffffffffffff82612673565b6126ba8683612673565b95508019841693508086168417925050509392505050565b60006126ed6126e86126e384611a88565b611abc565b611a88565b9050919050565b6000819050919050565b612707836126d2565b61271b612713826126f4565b848454612680565b825550505050565b600090565b612730612723565b61273b8184846126fe565b505050565b5b8181101561275f57612754600082612728565b600181019050612741565b5050565b601f8211156127a4576127758161264e565b61277e84612663565b8101602085101561278d578190505b6127a161279985612663565b830182612740565b50505b505050565b600082821c905092915050565b60006127c7600019846008026127a9565b1980831691505092915050565b60006127e083836127b6565b9150826002028217905092915050565b6127f98261207e565b67ffffffffffffffff81111561281257612811611b65565b5b61281c825461261d565b612827828285612763565b600060209050601f83116001811461285a5760008415612848578287015190505b61285285826127d4565b8655506128ba565b601f1984166128688661264e565b60005b828110156128905784890151825560018201915060208501945060208101905061286b565b868310156128ad57848901516128a9601f8916826127b6565b8355505b6001600288020188555050505b505050505050565b600081519050919050565b600082825260208201905092915050565b6000819050602082019050919050565b6128f781611a4c565b82525050565b600061290983836128ee565b60208301905092915050565b6000602082019050919050565b600061292d826128c2565b61293781856128cd565b9350612942836128de565b8060005b8381101561297357815161295a88826128fd565b975061296583612915565b925050600181019050612946565b5085935050505092915050565b600081519050919050565b600082825260208201905092915050565b6000819050602082019050919050565b6129b581611a88565b82525050565b60006129c783836129ac565b60208301905092915050565b6000602082019050919050565b60006129eb82612980565b6129f5818561298b565b9350612a008361299c565b8060005b83811015612a31578151612a1888826129bb565b9750612a23836129d3565b925050600181019050612a04565b5085935050505092915050565b60006080820190508181036000830152612a5881876120c4565b90508181036020830152612a6c81866120c4565b90508181036040830152612a808185612922565b90508181036060830152612a9481846129e0565b905095945050505050565b7f43726561746f72206d75737420626520616e2041727469737400000000000000600082015250565b6000612ad5601983612089565b9150612ae082612a9f565b602082019050919050565b60006020820190508181036000830152612b0481612ac8565b9050919050565b7f536f6e6720616c72656164792072656769737465726564000000000000000000600082015250565b6000612b41601783612089565b9150612b4c82612b0b565b602082019050919050565b60006020820190508181036000830152612b7081612b34565b9050919050565b60006040820190508181036000830152612b9181856120c4565b90508181036020830152612ba58184612922565b90509392505050565b7f4f6e6c79206f776e65722063616e20706572666f726d2074686973206163746960008201527f6f6e000000000000000000000000000000000000000000000000000000000000602082015250565b6000612c0a602283612089565b9150612c1582612bae565b604082019050919050565b60006020820190508181036000830152612c3981612bfd565b9050919050565b7f416b756e20737564616820746572646166746172000000000000000000000000600082015250565b6000612c76601483612089565b9150612c8182612c40565b602082019050919050565b60006020820190508181036000830152612ca581612c69565b9050919050565b7f496e76616c696420726f6c650000000000000000000000000000000000000000600082015250565b6000612ce2600c83612089565b9150612ced82612cac565b602082019050919050565b60006020820190508181036000830152612d1181612cd5565b9050919050565b7f4f6e6c79206f7261636c652063616e20706572666f726d20746869732061637460008201527f696f6e0000000000000000000000000000000000000000000000000000000000602082015250565b6000612d74602383612089565b9150612d7f82612d18565b604082019050919050565b60006020820190508181036000830152612da381612d67565b9050919050565b7f53747265616d20636f756e74206d75737420696e637265617365000000000000600082015250565b6000612de0601a83612089565b9150612deb82612daa565b602082019050919050565b60006020820190508181036000830152612e0f81612dd3565b9050919050565b60006040820190508181036000830152612e3081856120c4565b9050612e3f6020830184611a92565b9392505050565b7f4d75737420626520612072656769737465726564207573657200000000000000600082015250565b6000612e7c601983612089565b9150612e8782612e46565b602082019050919050565b60006020820190508181036000830152612eab81612e6f565b9050919050565b7f416c726561647920737562736372696265640000000000000000000000000000600082015250565b6000612ee8601283612089565b9150612ef382612eb2565b602082019050919050565b60006020820190508181036000830152612f1781612edb565b9050919050565b6000606082019050612f336000830186611a5e565b612f406020830185611a5e565b612f4d6040830184611a92565b949350505050565b612f5e816120fd565b8114612f6957600080fd5b50565b600081519050612f7b81612f55565b92915050565b600060208284031215612f9757612f96611b40565b5b6000612fa584828501612f6c565b91505092915050565b7f537562736372697074696f6e207061796d656e74206661696c65640000000000600082015250565b6000612fe4601b83612089565b9150612fef82612fae565b602082019050919050565b6000602082019050818103600083015261301381612fd7565b9050919050565b600061302582611a88565b915061303083611a88565b925082820261303e81611a88565b915082820484148315176130555761305461251f565b5b5092915050565b7f4e487b7100000000000000000000000000000000000000000000000000000000600052601260045260246000fd5b600061309682611a88565b91506130a183611a88565b9250826130b1576130b061305c565b5b828204905092915050565b60006040820190506130d16000830185611a5e565b6130de6020830184611a92565b9392505050565b7f5472616e73666572206661696c65640000000000000000000000000000000000600082015250565b600061311b600f83612089565b9150613126826130e5565b602082019050919050565b6000602082019050818103600083015261314a8161310e565b9050919050565b6000606082019050818103600083015261316b81866120c4565b905061317a6020830185611a5e565b6131876040830184611a92565b94935050505056fea2646970667358221220b54db6ab8123bc2ef4d28cf0acd43681f09b38cb96e8030c1e087642b7497b9b64736f6c634300081c0033",
  "linkReferences": {},
  "deployedLinkReferences": {}
}