{
  "_format": "hh-sol-artifact-1",
  "contractName": "MilestoneRoyalty",
  "sourceName": "contracts/MilestoneRoyalty.sol",
  "abi": [
    {
      "inputs": [
        {
          "internalType": "address",
          "name": "_oracle",
          "type": "address"
        },
        {
          "internalType": "address",
          "name": "_usdcToken",
          "type": "address"
        }
      ],
      "stateMutability": "nonpayable",
      "type": "constructor"
    },
    {
      "anonymous": false,
      "inputs": [
        {
          "indexed": false,
          "internalType": "string",
          "name": "songId",
          "type": "string"
        },
        {
          "indexed": false,
          "internalType": "uint256",
          "name": "milestone",
          "type": "uint256"
        }
      ],
      "name": "MilestoneReached",
      "type": "event"
    },
    {
      "anonymous": false,
      "inputs": [
        {
          "indexed": false,
          "internalType": "string",
          "name": "songId",
          "type": "string"
        },
        {
          "indexed": false,
          "internalType": "address",
          "name": "recipient",
          "type": "address"
        },
        {
          "indexed": false,
          "internalType": "uint256",
          "name": "amount",
          "type": "uint256"
        }
      ],
      "name": "RoyaltyPaid",
      "type": "event"
    },
    {
      "anonymous": false,
      "inputs": [
        {
          "indexed": false,
          "internalType": "string",
          "name": "songId",
          "type": "string"
        },
        {
          "indexed": false,
          "internalType": "string",
          "name": "newIpfsHash",
          "type": "string"
        },
        {
          "indexed": false,
          "internalType": "address[]",
          "name": "newCollaborators",
          "type": "address[]"
        },
        {
          "indexed": false,
          "internalType": "uint256[]",
          "name": "newShares",
          "type": "uint256[]"
        }
      ],
      "name": "SongEdited",
      "type": "event"
    },
    {
      "anonymous": false,
      "inputs": [
        {
          "indexed": false,
          "internalType": "string",
          "name": "songId",
          "type": "string"
        },
        {
          "indexed": true,
          "internalType": "address",
          "name": "creator",
          "type": "address"
        },
        {
          "indexed": false,
          "internalType": "address[]",
          "name": "collaborators",
          "type": "address[]"
        }
      ],
      "name": "SongRegistered",
      "type": "event"
    },
    {
      "anonymous": false,
      "inputs": [
        {
          "indexed": false,
          "internalType": "string",
          "name": "songId",
          "type": "string"
        },
        {
          "indexed": false,
          "internalType": "uint256",
          "name": "newTotal",
          "type": "uint256"
        }
      ],
      "name": "StreamsUpdated",
      "type": "event"
    },
    {
      "anonymous": false,
      "inputs": [
        {
          "indexed": true,
          "internalType": "address",
          "name": "listener",
          "type": "address"
        },
        {
          "indexed": false,
          "internalType": "uint256",
          "name": "amount",
          "type": "uint256"
        }
      ],
      "name": "Subscribed",
      "type": "event"
    },
    {
      "anonymous": false,
      "inputs": [
        {
          "indexed": true,
          "internalType": "address",
          "name": "user",
          "type": "address"
        },
        {
          "indexed": false,
          "internalType": "enum MilestoneRoyalty.Role",
          "name": "role",
          "type": "uint8"
        }
      ],
      "name": "UserRegistered",
      "type": "event"
    },
    {
      "inputs": [
        {
          "internalType": "string",
          "name": "songId",
          "type": "string"
        },
        {
          "internalType": "string",
          "name": "newIpfsHash",
          "type": "string"
        },
        {
          "internalType": "address[]",
          "name": "newCollaborators",
          "type": "address[]"
        },
        {
          "internalType": "uint256[]",
          "name": "newShares",
          "type": "uint256[]"
        }
      ],
      "name": "editSong",
      "outputs": [],
      "stateMutability": "nonpayable",
      "type": "function"
    },
    {
      "inputs": [
        {
          "internalType": "string",
          "name": "songId",
          "type": "string"
        }
      ],
      "name": "getSongDetails",
      "outputs": [
        {
          "internalType": "address",
          "name": "",
          "type": "address"
        },
        {
          "internalType": "string",
          "name": "",
          "type": "string"
        },
        {
          "internalType": "uint256",
          "name": "",
          "type": "uint256"
        },
        {
          "internalType": "uint256",
          "name": "",
          "type": "uint256"
        }
      ],
      "stateMutability": "view",
      "type": "function"
    },
    {
      "inputs": [
        {
          "internalType": "address",
          "name": "",
          "type": "address"
        }
      ],
      "name": "isSubscribed",
      "outputs": [
        {
          "internalType": "bool",
          "name": "",
          "type": "bool"
        }
      ],
      "stateMutability": "view",
      "type": "function"
    },
    {
      "inputs": [],
      "name": "owner",
      "outputs": [
        {
          "internalType": "address",
          "name": "",
          "type": "address"
        }
      ],
      "stateMutability": "view",
      "type": "function"
    },
    {
      "inputs": [],
      "name": "payoutPerMilestone",
      "outputs": [
        {
          "internalType": "uint256",
          "name": "",
          "type": "uint256"
        }
      ],
      "stateMutability": "view",
      "type": "function"
    },
    {
      "inputs": [
        {
          "internalType": "address",
          "name": "user",
          "type": "address"
        },
        {
          "internalType": "enum MilestoneRoyalty.Role",
          "name": "_role",
          "type": "uint8"
        }
      ],
      "name": "registerAccount",
      "outputs": [],
      "stateMutability": "nonpayable",
      "type": "function"
    },
    {
      "inputs": [
        {
          "internalType": "address",
          "name": "creator",
          "type": "address"
        },
        {
          "internalType": "string",
          "name": "songId",
          "type": "string"
        },
        {
          "internalType": "string",
          "name": "ipfsHash",
          "type": "string"
        },
        {
          "internalType": "address[]",
          "name": "collaborators",
          "type": "address[]"
        },
        {
          "internalType": "uint256[]",
          "name": "shares",
          "type": "uint256[]"
        }
      ],
      "name": "registerSong",
      "outputs": [],
      "stateMutability": "nonpayable",
      "type": "function"
    },
    {
      "inputs": [
        {
          "internalType": "address",
          "name": "_oracle",
          "type": "address"
        }
      ],
      "name": "setOracle",
      "outputs": [],
      "stateMutability": "nonpayable",
      "type": "function"
    },
    {
      "inputs": [
        {
          "internalType": "uint256",
          "name": "_newFee",
          "type": "uint256"
        }
      ],
      "name": "setSubscriptionFee",
      "outputs": [],
      "stateMutability": "nonpayable",
      "type": "function"
    },
    {
      "inputs": [
        {
          "internalType": "string",
          "name": "",
          "type": "string"
        }
      ],
      "name": "songs",
      "outputs": [
        {
          "internalType": "address",
          "name": "creator",
          "type": "address"
        },
        {
          "internalType": "string",
          "name": "ipfsHash",
          "type": "string"
        },
        {
          "internalType": "uint256",
          "name": "totalStreams",
          "type": "uint256"
        },
        {
          "internalType": "uint256",
          "name": "nextMilestone",
          "type": "uint256"
        },
        {
          "internalType": "bool",
          "name": "isRegistered",
          "type": "bool"
        }
      ],
      "stateMutability": "view",
      "type": "function"
    },
    {
      "inputs": [],
      "name": "streamOracle",
      "outputs": [
        {
          "internalType": "address",
          "name": "",
          "type": "address"
        }
      ],
      "stateMutability": "view",
      "type": "function"
    },
    {
      "inputs": [],
      "name": "subscribePlatform",
      "outputs": [],
      "stateMutability": "nonpayable",
      "type": "function"
    },
    {
      "inputs": [],
      "name": "subscriptionFee",
      "outputs": [
        {
          "internalType": "uint256",
          "name": "",
          "type": "uint256"
        }
      ],
      "stateMutability": "view",
      "type": "function"
    },
    {
      "inputs": [
        {
          "internalType": "string",
          "name": "songId",
          "type": "string"
        },
        {
          "internalType": "uint256",
          "name": "newTotalStreams",
          "type": "uint256"
        }
      ],
      "name": "updateStreamCount",
      "outputs": [],
      "stateMutability": "nonpayable",
      "type": "function"
    },
    {
      "inputs": [],
      "name": "usdcToken",
      "outputs": [
        {
          "internalType": "contract IERC20",
          "name": "",
          "type": "address"
        }
      ],
      "stateMutability": "view",
      "type": "function"
    },
    {
      "inputs": [
        {
          "internalType": "address",
          "name": "",
          "type": "address"
        }
      ],
      "name": "userRoles",
      "outputs": [
        {
          "internalType": "enum MilestoneRoyalty.Role",
          "name": "",
          "type": "uint8"
        }
      ],
      "stateMutability": "view",
      "type": "function"
    }
  ],
  "bytecode": "0x6080604052624c4b406005556298968060065534801561001e57600080fd5b506040516134123803806134128339818101604052810190610040919061016c565b336000806101000a81548173ffffffffffffffffffffffffffffffffffffffff021916908373ffffffffffffffffffffffffffffffffffffffff16021790555081600160006101000a81548173ffffffffffffffffffffffffffffffffffffffff021916908373ffffffffffffffffffffffffffffffffffffffff16021790555080600260006101000a81548173ffffffffffffffffffffffffffffffffffffffff021916908373ffffffffffffffffffffffffffffffffffffffff16021790555050506101ac565b600080fd5b600073ffffffffffffffffffffffffffffffffffffffff82169050919050565b60006101398261010e565b9050919050565b6101498161012e565b811461015457600080fd5b50565b60008151905061016681610140565b92915050565b6000806040838503121561018357610182610109565b5b600061019185828601610157565b92505060206101a285828601610157565b9150509250929050565b613257806101bb6000396000f3fe608060405234801561001057600080fd5b50600436106101005760003560e01c806374d5e10011610097578063b92ae87c11610066578063b92ae87c1461028b578063c900a771146102bb578063e0a50147146102ee578063efcd126c1461030a57610100565b806374d5e100146102055780637adbf973146102355780638da5cb5b14610251578063b36388fa1461026f57610100565b80634ca31526116100d35780634ca315261461017b5780636a7f8e8e146101975780636ac84956146101cb5780636ffdd0cd146101e757610100565b806302389591146101055780630aa0a1751461012357806311eac855146101415780634adec55a1461015f575b600080fd5b61010d610314565b60405161011a9190611ad2565b60405180910390f35b61012b61033a565b6040516101389190611b06565b60405180910390f35b610149610340565b6040516101569190611b80565b60405180910390f35b61017960048036038101906101749190611ed8565b610366565b005b61019560048036038101906101909190611faf565b610684565b005b6101b160048036038101906101ac919061209a565b610ac8565b6040516101c295949392919061217d565b60405180910390f35b6101e560048036038101906101e091906121d7565b610bc9565b005b6101ef610c61565b6040516101fc9190611b06565b60405180910390f35b61021f600480360381019061021a9190612204565b610c67565b60405161022c91906122a8565b60405180910390f35b61024f600480360381019061024a9190612204565b610c87565b005b610259610d59565b6040516102669190611ad2565b60405180910390f35b610289600480360381019061028491906122e8565b610d7d565b005b6102a560048036038101906102a09190612204565b611044565b6040516102b29190612328565b60405180910390f35b6102d560048036038101906102d0919061209a565b611064565b6040516102e59493929190612343565b60405180910390f35b6103086004803603810190610303919061238f565b61121b565b005b610312611437565b005b600160009054906101000a900473ffffffffffffffffffffffffffffffffffffffff1681565b60055481565b600260009054906101000a900473ffffffffffffffffffffffffffffffffffffffff1681565b6007846040516103769190612427565b908152602001604051809103902060060160009054906101000a900460ff166103d4576040517f08c379a00000000000000000000000000000000000000000000000000000000081526004016103cb9061248a565b60405180910390fd5b6007846040516103e49190612427565b908152602001604051809103902060000160009054906101000a900473ffffffffffffffffffffffffffffffffffffffff1673ffffffffffffffffffffffffffffffffffffffff163373ffffffffffffffffffffffffffffffffffffffff16148061049c5750600160009054906101000a900473ffffffffffffffffffffffffffffffffffffffff1673ffffffffffffffffffffffffffffffffffffffff163373ffffffffffffffffffffffffffffffffffffffff16145b6104db576040517f08c379a00000000000000000000000000000000000000000000000000000000081526004016104d2906124f6565b60405180910390fd5b805182511461051f576040517f08c379a000000000000000000000000000000000000000000000000000000000815260040161051690612562565b60405180910390fd5b6000805b82518110156105615782818151811061053f5761053e612582565b5b60200260200101518261055291906125e0565b91508080600101915050610523565b50606481146105a5576040517f08c379a000000000000000000000000000000000000000000000000000000000815260040161059c90612660565b60405180910390fd5b836007866040516105b69190612427565b908152602001604051809103902060010190816105d39190612882565b50826007866040516105e59190612427565b9081526020016040518091039020600401908051906020019061060992919061199d565b508160078660405161061b9190612427565b9081526020016040518091039020600501908051906020019061063f929190611a27565b507f8649f246a97d4769e49146739515ad5d2f1f7a2300bb343228328c7d48e3cba2858585856040516106759493929190612ad0565b60405180910390a15050505050565b8473ffffffffffffffffffffffffffffffffffffffff163373ffffffffffffffffffffffffffffffffffffffff16148061070b5750600160009054906101000a900473ffffffffffffffffffffffffffffffffffffffff1673ffffffffffffffffffffffffffffffffffffffff163373ffffffffffffffffffffffffffffffffffffffff16145b61074a576040517f08c379a0000000000000000000000000000000000000000000000000000000008152600401610741906124f6565b60405180910390fd5b60028081111561075d5761075c612231565b5b600360008773ffffffffffffffffffffffffffffffffffffffff1673ffffffffffffffffffffffffffffffffffffffff16815260200190815260200160002060009054906101000a900460ff1660028111156107bc576107bb612231565b5b146107fc576040517f08c379a00000000000000000000000000000000000000000000000000000000081526004016107f390612b7d565b60405180910390fd5b60078460405161080c9190612427565b908152602001604051809103902060060160009054906101000a900460ff161561086b576040517f08c379a000000000000000000000000000000000000000000000000000000000815260040161086290612be9565b60405180910390fd5b80518251146108af576040517f08c379a00000000000000000000000000000000000000000000000000000000081526004016108a690612562565b60405180910390fd5b6000805b82518110156108f1578281815181106108cf576108ce612582565b5b6020026020010151826108e291906125e0565b915080806001019150506108b3565b5060648114610935576040517f08c379a000000000000000000000000000000000000000000000000000000000815260040161092c90612660565b60405180910390fd5b6040518060e001604052808773ffffffffffffffffffffffffffffffffffffffff168152602001858152602001600081526020016103e88152602001848152602001838152602001600115158152506007866040516109949190612427565b908152602001604051809103902060008201518160000160006101000a81548173ffffffffffffffffffffffffffffffffffffffff021916908373ffffffffffffffffffffffffffffffffffffffff16021790555060208201518160010190816109fe9190612882565b5060408201518160020155606082015181600301556080820151816004019080519060200190610a2f92919061199d565b5060a0820151816005019080519060200190610a4c929190611a27565b5060c08201518160060160006101000a81548160ff0219169083151502179055509050508573ffffffffffffffffffffffffffffffffffffffff167f2443f6a4ef7132f620f4b9ea72c26fd850f40f0289453e47d9b347793d6bde9b8685604051610ab8929190612c09565b60405180910390a2505050505050565b6007818051602081018201805184825260208301602085012081835280955050505050506000915090508060000160009054906101000a900473ffffffffffffffffffffffffffffffffffffffff1690806001018054610b27906126af565b80601f0160208091040260200160405190810160405280929190818152602001828054610b53906126af565b8015610ba05780601f10610b7557610100808354040283529160200191610ba0565b820191906000526020600020905b815481529060010190602001808311610b8357829003601f168201915b5050505050908060020154908060030154908060060160009054906101000a900460ff16905085565b60008054906101000a900473ffffffffffffffffffffffffffffffffffffffff1673ffffffffffffffffffffffffffffffffffffffff163373ffffffffffffffffffffffffffffffffffffffff1614610c57576040517f08c379a0000000000000000000000000000000000000000000000000000000008152600401610c4e90612cb2565b60405180910390fd5b8060058190555050565b60065481565b60036020528060005260406000206000915054906101000a900460ff1681565b60008054906101000a900473ffffffffffffffffffffffffffffffffffffffff1673ffffffffffffffffffffffffffffffffffffffff163373ffffffffffffffffffffffffffffffffffffffff1614610d15576040517f08c379a0000000000000000000000000000000000000000000000000000000008152600401610d0c90612cb2565b60405180910390fd5b80600160006101000a81548173ffffffffffffffffffffffffffffffffffffffff021916908373ffffffffffffffffffffffffffffffffffffffff16021790555050565b60008054906101000a900473ffffffffffffffffffffffffffffffffffffffff1681565b60006002811115610d9157610d90612231565b5b600360008473ffffffffffffffffffffffffffffffffffffffff1673ffffffffffffffffffffffffffffffffffffffff16815260200190815260200160002060009054906101000a900460ff166002811115610df057610def612231565b5b14610e30576040517f08c379a0000000000000000000000000000000000000000000000000000000008152600401610e2790612d1e565b60405180910390fd5b60016002811115610e4457610e43612231565b5b816002811115610e5757610e56612231565b5b1480610e865750600280811115610e7157610e70612231565b5b816002811115610e8457610e83612231565b5b145b610ec5576040517f08c379a0000000000000000000000000000000000000000000000000000000008152600401610ebc90612d8a565b60405180910390fd5b8173ffffffffffffffffffffffffffffffffffffffff163373ffffffffffffffffffffffffffffffffffffffff161480610f4c5750600160009054906101000a900473ffffffffffffffffffffffffffffffffffffffff1673ffffffffffffffffffffffffffffffffffffffff163373ffffffffffffffffffffffffffffffffffffffff16145b610f8b576040517f08c379a0000000000000000000000000000000000000000000000000000000008152600401610f82906124f6565b60405180910390fd5b80600360008473ffffffffffffffffffffffffffffffffffffffff1673ffffffffffffffffffffffffffffffffffffffff16815260200190815260200160002060006101000a81548160ff02191690836002811115610fed57610fec612231565b5b02179055508173ffffffffffffffffffffffffffffffffffffffff167f8e18574f8a7333e6a87112742a55853a643e2f0550f4e1a3a2c3f1bb2994441d8260405161103891906122a8565b60405180910390a25050565b60046020528060005260406000206000915054906101000a900460ff1681565b6000606060008060078560405161107b9190612427565b908152602001604051809103902060060160009054906101000a900460ff166110d9576040517f08c379a00000000000000000000000000000000000000000000000000000000081526004016110d09061248a565b60405180910390fd5b6007856040516110e99190612427565b908152602001604051809103902060000160009054906101000a900473ffffffffffffffffffffffffffffffffffffffff1660078660405161112b9190612427565b908152602001604051809103902060010160078760405161114c9190612427565b90815260200160405180910390206002015460078860405161116e9190612427565b90815260200160405180910390206003015482805461118c906126af565b80601f01602080910402602001604051908101604052809291908181526020018280546111b8906126af565b80156112055780601f106111da57610100808354040283529160200191611205565b820191906000526020600020905b8154815290600101906020018083116111e857829003601f168201915b5050505050925093509350935093509193509193565b600160009054906101000a900473ffffffffffffffffffffffffffffffffffffffff1673ffffffffffffffffffffffffffffffffffffffff163373ffffffffffffffffffffffffffffffffffffffff16146112ab576040517f08c379a00000000000000000000000000000000000000000000000000000000081526004016112a290612e1c565b60405180910390fd5b6007826040516112bb9190612427565b908152602001604051809103902060060160009054906101000a900460ff16611319576040517f08c379a00000000000000000000000000000000000000000000000000000000081526004016113109061248a565b60405180910390fd5b6007826040516113299190612427565b908152602001604051809103902060020154811161137c576040517f08c379a000000000000000000000000000000000000000000000000000000000815260040161137390612e88565b60405180910390fd5b8060078360405161138d9190612427565b9081526020016040518091039020600201819055507f2080b9d646fc4f3f85f765956bb28c4ae2de4f39c23378d2a3ab727a8216823f82826040516113d3929190612ea8565b60405180910390a15b6007826040516113ec9190612427565b90815260200160405180910390206003015460078360405161140e9190612427565b908152602001604051809103902060020154106114335761142e82611724565b6113dc565b5050565b6001600281111561144b5761144a612231565b5b600360003373ffffffffffffffffffffffffffffffffffffffff1673ffffffffffffffffffffffffffffffffffffffff16815260200190815260200160002060009054906101000a900460ff1660028111156114aa576114a9612231565b5b146114ea576040517f08c379a00000000000000000000000000000000000000000000000000000000081526004016114e190612f24565b60405180910390fd5b600460003373ffffffffffffffffffffffffffffffffffffffff1673ffffffffffffffffffffffffffffffffffffffff16815260200190815260200160002060009054906101000a900460ff1615611577576040517f08c379a000000000000000000000000000000000000000000000000000000000815260040161156e90612f90565b60405180910390fd5b600260009054906101000a900473ffffffffffffffffffffffffffffffffffffffff1673ffffffffffffffffffffffffffffffffffffffff166323b872dd3360008054906101000a900473ffffffffffffffffffffffffffffffffffffffff166005546040518463ffffffff1660e01b81526004016115f893929190612fb0565b6020604051808303816000875af1158015611617573d6000803e3d6000fd5b505050506040513d601f19601f8201168201806040525081019061163b9190613013565b61167a576040517f08c379a00000000000000000000000000000000000000000000000000000000081526004016116719061308c565b60405180910390fd5b6001600460003373ffffffffffffffffffffffffffffffffffffffff1673ffffffffffffffffffffffffffffffffffffffff16815260200190815260200160002060006101000a81548160ff0219169083151502179055503373ffffffffffffffffffffffffffffffffffffffff167f4b90d6788928d63c1821907a6a8b95f40d26562d8fe41b105f7489db9966dfcb60055460405161171a9190611b06565b60405180910390a2565b60006007826040516117369190612427565b908152602001604051809103902090507f6171f3d843fbf91f613676b81052758b485d8816a1dfc4785f196db241554e0582826003015460405161177b929190612ea8565b60405180910390a160005b816004018054905081101561197b57600060648360050183815481106117af576117ae612582565b5b90600052602060002001546006546117c791906130ac565b6117d1919061311d565b9050600260009054906101000a900473ffffffffffffffffffffffffffffffffffffffff1673ffffffffffffffffffffffffffffffffffffffff1663a9059cbb84600401848154811061182757611826612582565b5b9060005260206000200160009054906101000a900473ffffffffffffffffffffffffffffffffffffffff16836040518363ffffffff1660e01b815260040161187092919061314e565b6020604051808303816000875af115801561188f573d6000803e3d6000fd5b505050506040513d601f19601f820116820180604052508101906118b39190613013565b6118f2576040517f08c379a00000000000000000000000000000000000000000000000000000000081526004016118e9906131c3565b60405180910390fd5b7fa4d0d876b730b913e8c4d9870a8e9fa0bbfdb2e1edb29278ec445c3640a17c3c8484600401848154811061192a57611929612582565b5b9060005260206000200160009054906101000a900473ffffffffffffffffffffffffffffffffffffffff1683604051611965939291906131e3565b60405180910390a1508080600101915050611786565b506103e881600301600082825461199291906125e0565b925050819055505050565b828054828255906000526020600020908101928215611a16579160200282015b82811115611a155782518260006101000a81548173ffffffffffffffffffffffffffffffffffffffff021916908373ffffffffffffffffffffffffffffffffffffffff160217905550916020019190600101906119bd565b5b509050611a239190611a74565b5090565b828054828255906000526020600020908101928215611a63579160200282015b82811115611a62578251825591602001919060010190611a47565b5b509050611a709190611a74565b5090565b5b80821115611a8d576000816000905550600101611a75565b5090565b600073ffffffffffffffffffffffffffffffffffffffff82169050919050565b6000611abc82611a91565b9050919050565b611acc81611ab1565b82525050565b6000602082019050611ae76000830184611ac3565b92915050565b6000819050919050565b611b0081611aed565b82525050565b6000602082019050611b1b6000830184611af7565b92915050565b6000819050919050565b6000611b46611b41611b3c84611a91565b611b21565b611a91565b9050919050565b6000611b5882611b2b565b9050919050565b6000611b6a82611b4d565b9050919050565b611b7a81611b5f565b82525050565b6000602082019050611b956000830184611b71565b92915050565b6000604051905090565b600080fd5b600080fd5b600080fd5b600080fd5b6000601f19601f8301169050919050565b7f4e487b7100000000000000000000000000000000000000000000000000000000600052604160045260246000fd5b611c0282611bb9565b810181811067ffffffffffffffff82111715611c2157611c20611bca565b5b80604052505050565b6000611c34611b9b565b9050611c408282611bf9565b919050565b600067ffffffffffffffff821115611c6057611c5f611bca565b5b611c6982611bb9565b9050602081019050919050565b82818337600083830152505050565b6000611c98611c9384611c45565b611c2a565b905082815260208101848484011115611cb457611cb3611bb4565b5b611cbf848285611c76565b509392505050565b600082601f830112611cdc57611cdb611baf565b5b8135611cec848260208601611c85565b91505092915050565b600067ffffffffffffffff821115611d1057611d0f611bca565b5b602082029050602081019050919050565b600080fd5b611d2f81611ab1565b8114611d3a57600080fd5b50565b600081359050611d4c81611d26565b92915050565b6000611d65611d6084611cf5565b611c2a565b90508083825260208201905060208402830185811115611d8857611d87611d21565b5b835b81811015611db15780611d9d8882611d3d565b845260208401935050602081019050611d8a565b5050509392505050565b600082601f830112611dd057611dcf611baf565b5b8135611de0848260208601611d52565b91505092915050565b600067ffffffffffffffff821115611e0457611e03611bca565b5b602082029050602081019050919050565b611e1e81611aed565b8114611e2957600080fd5b50565b600081359050611e3b81611e15565b92915050565b6000611e54611e4f84611de9565b611c2a565b90508083825260208201905060208402830185811115611e7757611e76611d21565b5b835b81811015611ea05780611e8c8882611e2c565b845260208401935050602081019050611e79565b5050509392505050565b600082601f830112611ebf57611ebe611baf565b5b8135611ecf848260208601611e41565b91505092915050565b60008060008060808587031215611ef257611ef1611ba5565b5b600085013567ffffffffffffffff811115611f1057611f0f611baa565b5b611f1c87828801611cc7565b945050602085013567ffffffffffffffff811115611f3d57611f3c611baa565b5b611f4987828801611cc7565b935050604085013567ffffffffffffffff811115611f6a57611f69611baa565b5b611f7687828801611dbb565b925050606085013567ffffffffffffffff811115611f9757611f96611baa565b5b611fa387828801611eaa565b91505092959194509250565b600080600080600060a08688031215611fcb57611fca611ba5565b5b6000611fd988828901611d3d565b955050602086013567ffffffffffffffff811115611ffa57611ff9611baa565b5b61200688828901611cc7565b945050604086013567ffffffffffffffff81111561202757612026611baa565b5b61203388828901611cc7565b935050606086013567ffffffffffffffff81111561205457612053611baa565b5b61206088828901611dbb565b925050608086013567ffffffffffffffff81111561208157612080611baa565b5b61208d88828901611eaa565b9150509295509295909350565b6000602082840312156120b0576120af611ba5565b5b600082013567ffffffffffffffff8111156120ce576120cd611baa565b5b6120da84828501611cc7565b91505092915050565b600081519050919050565b600082825260208201905092915050565b60005b8381101561211d578082015181840152602081019050612102565b60008484015250505050565b6000612134826120e3565b61213e81856120ee565b935061214e8185602086016120ff565b61215781611bb9565b840191505092915050565b60008115159050919050565b61217781612162565b82525050565b600060a0820190506121926000830188611ac3565b81810360208301526121a48187612129565b90506121b36040830186611af7565b6121c06060830185611af7565b6121cd608083018461216e565b9695505050505050565b6000602082840312156121ed576121ec611ba5565b5b60006121fb84828501611e2c565b91505092915050565b60006020828403121561221a57612219611ba5565b5b600061222884828501611d3d565b91505092915050565b7f4e487b7100000000000000000000000000000000000000000000000000000000600052602160045260246000fd5b6003811061227157612270612231565b5b50565b600081905061228282612260565b919050565b600061229282612274565b9050919050565b6122a281612287565b82525050565b60006020820190506122bd6000830184612299565b92915050565b600381106122d057600080fd5b50565b6000813590506122e2816122c3565b92915050565b600080604083850312156122ff576122fe611ba5565b5b600061230d85828601611d3d565b925050602061231e858286016122d3565b9150509250929050565b600060208201905061233d600083018461216e565b92915050565b60006080820190506123586000830187611ac3565b818103602083015261236a8186612129565b90506123796040830185611af7565b6123866060830184611af7565b95945050505050565b600080604083850312156123a6576123a5611ba5565b5b600083013567ffffffffffffffff8111156123c4576123c3611baa565b5b6123d085828601611cc7565b92505060206123e185828601611e2c565b9150509250929050565b600081905092915050565b6000612401826120e3565b61240b81856123eb565b935061241b8185602086016120ff565b80840191505092915050565b600061243382846123f6565b915081905092915050565b7f536f6e67206e6f7420666f756e64000000000000000000000000000000000000600082015250565b6000612474600e836120ee565b915061247f8261243e565b602082019050919050565b600060208201905081810360008301526124a381612467565b9050919050565b7f4e6f7420617574686f72697a6564000000000000000000000000000000000000600082015250565b60006124e0600e836120ee565b91506124eb826124aa565b602082019050919050565b6000602082019050818103600083015261250f816124d3565b9050919050565b7f496e76616c696420646174610000000000000000000000000000000000000000600082015250565b600061254c600c836120ee565b915061255782612516565b602082019050919050565b6000602082019050818103600083015261257b8161253f565b9050919050565b7f4e487b7100000000000000000000000000000000000000000000000000000000600052603260045260246000fd5b7f4e487b7100000000000000000000000000000000000000000000000000000000600052601160045260246000fd5b60006125eb82611aed565b91506125f683611aed565b925082820190508082111561260e5761260d6125b1565b5b92915050565b7f546f74616c2070657263656e74616765206d7573742062652031303000000000600082015250565b600061264a601c836120ee565b915061265582612614565b602082019050919050565b600060208201905081810360008301526126798161263d565b9050919050565b7f4e487b7100000000000000000000000000000000000000000000000000000000600052602260045260246000fd5b600060028204905060018216806126c757607f821691505b6020821081036126da576126d9612680565b5b50919050565b60008190508160005260206000209050919050565b60006020601f8301049050919050565b600082821b905092915050565b6000600883026127427fffffffffffffffffffffffffffffffffffffffffffffffffffffffffffffffff82612705565b61274c8683612705565b95508019841693508086168417925050509392505050565b600061277f61277a61277584611aed565b611b21565b611aed565b9050919050565b6000819050919050565b61279983612764565b6127ad6127a582612786565b848454612712565b825550505050565b600090565b6127c26127b5565b6127cd818484612790565b505050565b5b818110156127f1576127e66000826127ba565b6001810190506127d3565b5050565b601f82111561283657612807816126e0565b612810846126f5565b8101602085101561281f578190505b61283361282b856126f5565b8301826127d2565b50505b505050565b600082821c905092915050565b60006128596000198460080261283b565b1980831691505092915050565b60006128728383612848565b9150826002028217905092915050565b61288b826120e3565b67ffffffffffffffff8111156128a4576128a3611bca565b5b6128ae82546126af565b6128b98282856127f5565b600060209050601f8311600181146128ec57600084156128da578287015190505b6128e48582612866565b86555061294c565b601f1984166128fa866126e0565b60005b82811015612922578489015182556001820191506020850194506020810190506128fd565b8683101561293f578489015161293b601f891682612848565b8355505b6001600288020188555050505b505050505050565b600081519050919050565b600082825260208201905092915050565b6000819050602082019050919050565b61298981611ab1565b82525050565b600061299b8383612980565b60208301905092915050565b6000602082019050919050565b60006129bf82612954565b6129c9818561295f565b93506129d483612970565b8060005b83811015612a055781516129ec888261298f565b97506129f7836129a7565b9250506001810190506129d8565b5085935050505092915050565b600081519050919050565b600082825260208201905092915050565b6000819050602082019050919050565b612a4781611aed565b82525050565b6000612a598383612a3e565b60208301905092915050565b6000602082019050919050565b6000612a7d82612a12565b612a878185612a1d565b9350612a9283612a2e565b8060005b83811015612ac3578151612aaa8882612a4d565b9750612ab583612a65565b925050600181019050612a96565b5085935050505092915050565b60006080820190508181036000830152612aea8187612129565b90508181036020830152612afe8186612129565b90508181036040830152612b1281856129b4565b90508181036060830152612b268184612a72565b905095945050505050565b7f43726561746f72206d75737420626520616e2041727469737400000000000000600082015250565b6000612b676019836120ee565b9150612b7282612b31565b602082019050919050565b60006020820190508181036000830152612b9681612b5a565b9050919050565b7f536f6e6720616c72656164792072656769737465726564000000000000000000600082015250565b6000612bd36017836120ee565b9150612bde82612b9d565b602082019050919050565b60006020820190508181036000830152612c0281612bc6565b9050919050565b60006040820190508181036000830152612c238185612129565b90508181036020830152612c3781846129b4565b90509392505050565b7f4f6e6c79206f776e65722063616e20706572666f726d2074686973206163746960008201527f6f6e000000000000000000000000000000000000000000000000000000000000602082015250565b6000612c9c6022836120ee565b9150612ca782612c40565b604082019050919050565b60006020820190508181036000830152612ccb81612c8f565b9050919050565b7f416b756e20737564616820746572646166746172000000000000000000000000600082015250565b6000612d086014836120ee565b9150612d1382612cd2565b602082019050919050565b60006020820190508181036000830152612d3781612cfb565b9050919050565b7f496e76616c696420726f6c650000000000000000000000000000000000000000600082015250565b6000612d74600c836120ee565b9150612d7f82612d3e565b602082019050919050565b60006020820190508181036000830152612da381612d67565b9050919050565b7f4f6e6c79206f7261636c652063616e20706572666f726d20746869732061637460008201527f696f6e0000000000000000000000000000000000000000000000000000000000602082015250565b6000612e066023836120ee565b9150612e1182612daa565b604082019050919050565b60006020820190508181036000830152612e3581612df9565b9050919050565b7f53747265616d20636f756e74206d75737420696e637265617365000000000000600082015250565b6000612e72601a836120ee565b9150612e7d82612e3c565b602082019050919050565b60006020820190508181036000830152612ea181612e65565b9050919050565b60006040820190508181036000830152612ec28185612129565b9050612ed16020830184611af7565b9392505050565b7f4f6e6c79204c697374656e65722063616e207375627363726962650000000000600082015250565b6000612f0e601b836120ee565b9150612f1982612ed8565b602082019050919050565b60006020820190508181036000830152612f3d81612f01565b9050919050565b7f416c726561647920737562736372696265640000000000000000000000000000600082015250565b6000612f7a6012836120ee565b9150612f8582612f44565b602082019050919050565b60006020820190508181036000830152612fa981612f6d565b9050919050565b6000606082019050612fc56000830186611ac3565b612fd26020830185611ac3565b612fdf6040830184611af7565b949350505050565b612ff081612162565b8114612ffb57600080fd5b50565b60008151905061300d81612fe7565b92915050565b60006020828403121561302957613028611ba5565b5b600061303784828501612ffe565b91505092915050565b7f537562736372697074696f6e207061796d656e74206661696c65640000000000600082015250565b6000613076601b836120ee565b915061308182613040565b602082019050919050565b600060208201905081810360008301526130a581613069565b9050919050565b60006130b782611aed565b91506130c283611aed565b92508282026130d081611aed565b915082820484148315176130e7576130e66125b1565b5b5092915050565b7f4e487b7100000000000000000000000000000000000000000000000000000000600052601260045260246000fd5b600061312882611aed565b915061313383611aed565b925082613143576131426130ee565b5b828204905092915050565b60006040820190506131636000830185611ac3565b6131706020830184611af7565b9392505050565b7f5472616e73666572206661696c65640000000000000000000000000000000000600082015250565b60006131ad600f836120ee565b91506131b882613177565b602082019050919050565b600060208201905081810360008301526131dc816131a0565b9050919050565b600060608201905081810360008301526131fd8186612129565b905061320c6020830185611ac3565b6132196040830184611af7565b94935050505056fea26469706673582212204784d5a7af596227ff5777a898f4509422b6ad95a2c0d7e642b547573e383a8d64736f6c634300081c0033",
  "linkReferences": {},
  "deployedLinkReferences": {}
}