{
  "_format": "hh-sol-artifact-1",
  "contractName": "MilestoneRoyalty",
  "sourceName": "contracts/MilestoneRoyalty.sol",
  "abi": [
    {
      "inputs": [
        {
          "internalType": "address",
          "name": "_oracle",
          "type": "address"
        },
        {
          "internalType": "address",
          "name": "_usdcToken",
          "type": "address"
        }
      ],
      "stateMutability": "nonpayable",
      "type": "constructor"
    },
    {
      "anonymous": false,
      "inputs": [
        {
          "indexed": false,
          "internalType": "string",
          "name": "songId",
          "type": "string"
        },
        {
          "indexed": false,
          "internalType": "uint256",
          "name": "milestone",
          "type": "uint256"
        }
      ],
      "name": "MilestoneReached",
      "type": "event"
    },
    {
      "anonymous": false,
      "inputs": [
        {
          "indexed": false,
          "internalType": "string",
          "name": "songId",
          "type": "string"
        },
        {
          "indexed": false,
          "internalType": "address",
          "name": "recipient",
          "type": "address"
        },
        {
          "indexed": false,
          "internalType": "uint256",
          "name": "amount",
          "type": "uint256"
        }
      ],
      "name": "RoyaltyPaid",
      "type": "event"
    },
    {
      "anonymous": false,
      "inputs": [
        {
          "indexed": false,
          "internalType": "string",
          "name": "songId",
          "type": "string"
        },
        {
          "indexed": false,
          "internalType": "address[]",
          "name": "collaborators",
          "type": "address[]"
        }
      ],
      "name": "SongRegistered",
      "type": "event"
    },
    {
      "anonymous": false,
      "inputs": [
        {
          "indexed": false,
          "internalType": "string",
          "name": "songId",
          "type": "string"
        },
        {
          "indexed": false,
          "internalType": "uint256",
          "name": "newTotal",
          "type": "uint256"
        }
      ],
      "name": "StreamsUpdated",
      "type": "event"
    },
    {
      "inputs": [
        {
          "internalType": "string",
          "name": "songId",
          "type": "string"
        }
      ],
      "name": "getSongDetails",
      "outputs": [
        {
          "internalType": "string",
          "name": "",
          "type": "string"
        },
        {
          "internalType": "uint256",
          "name": "",
          "type": "uint256"
        },
        {
          "internalType": "uint256",
          "name": "",
          "type": "uint256"
        }
      ],
      "stateMutability": "view",
      "type": "function"
    },
    {
      "inputs": [],
      "name": "owner",
      "outputs": [
        {
          "internalType": "address",
          "name": "",
          "type": "address"
        }
      ],
      "stateMutability": "view",
      "type": "function"
    },
    {
      "inputs": [],
      "name": "payoutPerMilestone",
      "outputs": [
        {
          "internalType": "uint256",
          "name": "",
          "type": "uint256"
        }
      ],
      "stateMutability": "view",
      "type": "function"
    },
    {
      "inputs": [
        {
          "internalType": "string",
          "name": "songId",
          "type": "string"
        },
        {
          "internalType": "string",
          "name": "ipfsHash",
          "type": "string"
        },
        {
          "internalType": "address[]",
          "name": "collaborators",
          "type": "address[]"
        },
        {
          "internalType": "uint256[]",
          "name": "shares",
          "type": "uint256[]"
        }
      ],
      "name": "registerSong",
      "outputs": [],
      "stateMutability": "nonpayable",
      "type": "function"
    },
    {
      "inputs": [
        {
          "internalType": "address",
          "name": "_oracle",
          "type": "address"
        }
      ],
      "name": "setOracle",
      "outputs": [],
      "stateMutability": "nonpayable",
      "type": "function"
    },
    {
      "inputs": [
        {
          "internalType": "string",
          "name": "",
          "type": "string"
        }
      ],
      "name": "songs",
      "outputs": [
        {
          "internalType": "string",
          "name": "ipfsHash",
          "type": "string"
        },
        {
          "internalType": "uint256",
          "name": "totalStreams",
          "type": "uint256"
        },
        {
          "internalType": "uint256",
          "name": "nextMilestone",
          "type": "uint256"
        },
        {
          "internalType": "bool",
          "name": "isRegistered",
          "type": "bool"
        }
      ],
      "stateMutability": "view",
      "type": "function"
    },
    {
      "inputs": [],
      "name": "streamOracle",
      "outputs": [
        {
          "internalType": "address",
          "name": "",
          "type": "address"
        }
      ],
      "stateMutability": "view",
      "type": "function"
    },
    {
      "inputs": [
        {
          "internalType": "string",
          "name": "songId",
          "type": "string"
        },
        {
          "internalType": "uint256",
          "name": "newTotalStreams",
          "type": "uint256"
        }
      ],
      "name": "updateStreamCount",
      "outputs": [],
      "stateMutability": "nonpayable",
      "type": "function"
    },
    {
      "inputs": [],
      "name": "usdcToken",
      "outputs": [
        {
          "internalType": "contract IERC20",
          "name": "",
          "type": "address"
        }
      ],
      "stateMutability": "view",
      "type": "function"
    }
  ],
  "bytecode": "0x60806040526298968060045534801561001757600080fd5b50604051611fd5380380611fd583398181016040528101906100399190610165565b336000806101000a81548173ffffffffffffffffffffffffffffffffffffffff021916908373ffffffffffffffffffffffffffffffffffffffff16021790555081600160006101000a81548173ffffffffffffffffffffffffffffffffffffffff021916908373ffffffffffffffffffffffffffffffffffffffff16021790555080600260006101000a81548173ffffffffffffffffffffffffffffffffffffffff021916908373ffffffffffffffffffffffffffffffffffffffff16021790555050506101a5565b600080fd5b600073ffffffffffffffffffffffffffffffffffffffff82169050919050565b600061013282610107565b9050919050565b61014281610127565b811461014d57600080fd5b50565b60008151905061015f81610139565b92915050565b6000806040838503121561017c5761017b610102565b5b600061018a85828601610150565b925050602061019b85828601610150565b9150509250929050565b611e21806101b46000396000f3fe608060405234801561001057600080fd5b50600436106100935760003560e01c80636ffdd0cd116100665780636ffdd0cd146101235780637adbf973146101415780638da5cb5b1461015d578063c900a7711461017b578063e0a50147146101ad57610093565b8063023895911461009857806311eac855146100b65780634d5d8cf1146100d45780636a7f8e8e146100f0575b600080fd5b6100a06101c9565b6040516100ad9190610d78565b60405180910390f35b6100be6101ef565b6040516100cb9190610df2565b60405180910390f35b6100ee60048036038101906100e99190611154565b610215565b005b61010a6004803603810190610105919061122b565b610466565b60405161011a949392919061131d565b60405180910390f35b61012b610541565b6040516101389190611369565b60405180910390f35b61015b60048036038101906101569190611384565b610547565b005b610165610619565b6040516101729190610d78565b60405180910390f35b6101956004803603810190610190919061122b565b61063d565b6040516101a4939291906113b1565b60405180910390f35b6101c760048036038101906101c291906113ef565b6107ae565b005b600160009054906101000a900473ffffffffffffffffffffffffffffffffffffffff1681565b600260009054906101000a900473ffffffffffffffffffffffffffffffffffffffff1681565b6003846040516102259190611487565b908152602001604051809103902060050160009054906101000a900460ff1615610284576040517f08c379a000000000000000000000000000000000000000000000000000000000815260040161027b906114ea565b60405180910390fd5b80518251146102c8576040517f08c379a00000000000000000000000000000000000000000000000000000000081526004016102bf90611556565b60405180910390fd5b6000805b825181101561030a578281815181106102e8576102e7611576565b5b6020026020010151826102fb91906115d4565b915080806001019150506102cc565b506064811461034e576040517f08c379a000000000000000000000000000000000000000000000000000000000815260040161034590611654565b60405180910390fd5b6040518060c00160405280858152602001600081526020016103e88152602001848152602001838152602001600115158152506003866040516103919190611487565b908152602001604051809103902060008201518160000190816103b49190611876565b50602082015181600101556040820151816002015560608201518160030190805190602001906103e5929190610c43565b506080820151816004019080519060200190610402929190610ccd565b5060a08201518160050160006101000a81548160ff0219169083151502179055509050507f98de64108a5524a055d3ae4e0416643816a747e445f58de014c1299d045010768584604051610457929190611a06565b60405180910390a15050505050565b60038180516020810182018051848252602083016020850120818352809550505050505060009150905080600001805461049f906116a3565b80601f01602080910402602001604051908101604052809291908181526020018280546104cb906116a3565b80156105185780601f106104ed57610100808354040283529160200191610518565b820191906000526020600020905b8154815290600101906020018083116104fb57829003601f168201915b5050505050908060010154908060020154908060050160009054906101000a900460ff16905084565b60045481565b60008054906101000a900473ffffffffffffffffffffffffffffffffffffffff1673ffffffffffffffffffffffffffffffffffffffff163373ffffffffffffffffffffffffffffffffffffffff16146105d5576040517f08c379a00000000000000000000000000000000000000000000000000000000081526004016105cc90611a89565b60405180910390fd5b80600160006101000a81548173ffffffffffffffffffffffffffffffffffffffff021916908373ffffffffffffffffffffffffffffffffffffffff16021790555050565b60008054906101000a900473ffffffffffffffffffffffffffffffffffffffff1681565b60606000806003846040516106529190611487565b908152602001604051809103902060050160009054906101000a900460ff166106b0576040517f08c379a00000000000000000000000000000000000000000000000000000000081526004016106a790611af5565b60405180910390fd5b6003846040516106c09190611487565b90815260200160405180910390206000016003856040516106e19190611487565b9081526020016040518091039020600101546003866040516107039190611487565b908152602001604051809103902060020154828054610721906116a3565b80601f016020809104026020016040519081016040528092919081815260200182805461074d906116a3565b801561079a5780601f1061076f5761010080835404028352916020019161079a565b820191906000526020600020905b81548152906001019060200180831161077d57829003601f168201915b505050505092509250925092509193909250565b600160009054906101000a900473ffffffffffffffffffffffffffffffffffffffff1673ffffffffffffffffffffffffffffffffffffffff163373ffffffffffffffffffffffffffffffffffffffff161461083e576040517f08c379a000000000000000000000000000000000000000000000000000000000815260040161083590611b61565b60405180910390fd5b60038260405161084e9190611487565b908152602001604051809103902060050160009054906101000a900460ff166108ac576040517f08c379a00000000000000000000000000000000000000000000000000000000081526004016108a390611af5565b60405180910390fd5b6003826040516108bc9190611487565b908152602001604051809103902060010154811161090f576040517f08c379a000000000000000000000000000000000000000000000000000000000815260040161090690611bcd565b60405180910390fd5b806003836040516109209190611487565b9081526020016040518091039020600101819055507f2080b9d646fc4f3f85f765956bb28c4ae2de4f39c23378d2a3ab727a8216823f8282604051610966929190611bed565b60405180910390a15b60038260405161097f9190611487565b9081526020016040518091039020600201546003836040516109a19190611487565b908152602001604051809103902060010154106109c6576109c1826109ca565b61096f565b5050565b60006003826040516109dc9190611487565b908152602001604051809103902090507f6171f3d843fbf91f613676b81052758b485d8816a1dfc4785f196db241554e05828260020154604051610a21929190611bed565b60405180910390a160005b8160030180549050811015610c215760006064836004018381548110610a5557610a54611576565b5b9060005260206000200154600454610a6d9190611c1d565b610a779190611c8e565b9050600260009054906101000a900473ffffffffffffffffffffffffffffffffffffffff1673ffffffffffffffffffffffffffffffffffffffff1663a9059cbb846003018481548110610acd57610acc611576565b5b9060005260206000200160009054906101000a900473ffffffffffffffffffffffffffffffffffffffff16836040518363ffffffff1660e01b8152600401610b16929190611cbf565b6020604051808303816000875af1158015610b35573d6000803e3d6000fd5b505050506040513d601f19601f82011682018060405250810190610b599190611d14565b610b98576040517f08c379a0000000000000000000000000000000000000000000000000000000008152600401610b8f90611d8d565b60405180910390fd5b7fa4d0d876b730b913e8c4d9870a8e9fa0bbfdb2e1edb29278ec445c3640a17c3c84846003018481548110610bd057610bcf611576565b5b9060005260206000200160009054906101000a900473ffffffffffffffffffffffffffffffffffffffff1683604051610c0b93929190611dad565b60405180910390a1508080600101915050610a2c565b506103e8816002016000828254610c3891906115d4565b925050819055505050565b828054828255906000526020600020908101928215610cbc579160200282015b82811115610cbb5782518260006101000a81548173ffffffffffffffffffffffffffffffffffffffff021916908373ffffffffffffffffffffffffffffffffffffffff16021790555091602001919060010190610c63565b5b509050610cc99190610d1a565b5090565b828054828255906000526020600020908101928215610d09579160200282015b82811115610d08578251825591602001919060010190610ced565b5b509050610d169190610d1a565b5090565b5b80821115610d33576000816000905550600101610d1b565b5090565b600073ffffffffffffffffffffffffffffffffffffffff82169050919050565b6000610d6282610d37565b9050919050565b610d7281610d57565b82525050565b6000602082019050610d8d6000830184610d69565b92915050565b6000819050919050565b6000610db8610db3610dae84610d37565b610d93565b610d37565b9050919050565b6000610dca82610d9d565b9050919050565b6000610ddc82610dbf565b9050919050565b610dec81610dd1565b82525050565b6000602082019050610e076000830184610de3565b92915050565b6000604051905090565b600080fd5b600080fd5b600080fd5b600080fd5b6000601f19601f8301169050919050565b7f4e487b7100000000000000000000000000000000000000000000000000000000600052604160045260246000fd5b610e7482610e2b565b810181811067ffffffffffffffff82111715610e9357610e92610e3c565b5b80604052505050565b6000610ea6610e0d565b9050610eb28282610e6b565b919050565b600067ffffffffffffffff821115610ed257610ed1610e3c565b5b610edb82610e2b565b9050602081019050919050565b82818337600083830152505050565b6000610f0a610f0584610eb7565b610e9c565b905082815260208101848484011115610f2657610f25610e26565b5b610f31848285610ee8565b509392505050565b600082601f830112610f4e57610f4d610e21565b5b8135610f5e848260208601610ef7565b91505092915050565b600067ffffffffffffffff821115610f8257610f81610e3c565b5b602082029050602081019050919050565b600080fd5b610fa181610d57565b8114610fac57600080fd5b50565b600081359050610fbe81610f98565b92915050565b6000610fd7610fd284610f67565b610e9c565b90508083825260208201905060208402830185811115610ffa57610ff9610f93565b5b835b81811015611023578061100f8882610faf565b845260208401935050602081019050610ffc565b5050509392505050565b600082601f83011261104257611041610e21565b5b8135611052848260208601610fc4565b91505092915050565b600067ffffffffffffffff82111561107657611075610e3c565b5b602082029050602081019050919050565b6000819050919050565b61109a81611087565b81146110a557600080fd5b50565b6000813590506110b781611091565b92915050565b60006110d06110cb8461105b565b610e9c565b905080838252602082019050602084028301858111156110f3576110f2610f93565b5b835b8181101561111c578061110888826110a8565b8452602084019350506020810190506110f5565b5050509392505050565b600082601f83011261113b5761113a610e21565b5b813561114b8482602086016110bd565b91505092915050565b6000806000806080858703121561116e5761116d610e17565b5b600085013567ffffffffffffffff81111561118c5761118b610e1c565b5b61119887828801610f39565b945050602085013567ffffffffffffffff8111156111b9576111b8610e1c565b5b6111c587828801610f39565b935050604085013567ffffffffffffffff8111156111e6576111e5610e1c565b5b6111f28782880161102d565b925050606085013567ffffffffffffffff81111561121357611212610e1c565b5b61121f87828801611126565b91505092959194509250565b60006020828403121561124157611240610e17565b5b600082013567ffffffffffffffff81111561125f5761125e610e1c565b5b61126b84828501610f39565b91505092915050565b600081519050919050565b600082825260208201905092915050565b60005b838110156112ae578082015181840152602081019050611293565b60008484015250505050565b60006112c582611274565b6112cf818561127f565b93506112df818560208601611290565b6112e881610e2b565b840191505092915050565b6112fc81611087565b82525050565b60008115159050919050565b61131781611302565b82525050565b6000608082019050818103600083015261133781876112ba565b905061134660208301866112f3565b61135360408301856112f3565b611360606083018461130e565b95945050505050565b600060208201905061137e60008301846112f3565b92915050565b60006020828403121561139a57611399610e17565b5b60006113a884828501610faf565b91505092915050565b600060608201905081810360008301526113cb81866112ba565b90506113da60208301856112f3565b6113e760408301846112f3565b949350505050565b6000806040838503121561140657611405610e17565b5b600083013567ffffffffffffffff81111561142457611423610e1c565b5b61143085828601610f39565b9250506020611441858286016110a8565b9150509250929050565b600081905092915050565b600061146182611274565b61146b818561144b565b935061147b818560208601611290565b80840191505092915050565b60006114938284611456565b915081905092915050565b7f4c61677520737564616820746572646166746172000000000000000000000000600082015250565b60006114d460148361127f565b91506114df8261149e565b602082019050919050565b60006020820190508181036000830152611503816114c7565b9050919050565b7f446174612070656d62616769616e20746964616b2076616c6964000000000000600082015250565b6000611540601a8361127f565b915061154b8261150a565b602082019050919050565b6000602082019050818103600083015261156f81611533565b9050919050565b7f4e487b7100000000000000000000000000000000000000000000000000000000600052603260045260246000fd5b7f4e487b7100000000000000000000000000000000000000000000000000000000600052601160045260246000fd5b60006115df82611087565b91506115ea83611087565b9250828201905080821115611602576116016115a5565b5b92915050565b7f546f74616c2070657273656e7461736520686172757320313030000000000000600082015250565b600061163e601a8361127f565b915061164982611608565b602082019050919050565b6000602082019050818103600083015261166d81611631565b9050919050565b7f4e487b7100000000000000000000000000000000000000000000000000000000600052602260045260246000fd5b600060028204905060018216806116bb57607f821691505b6020821081036116ce576116cd611674565b5b50919050565b60008190508160005260206000209050919050565b60006020601f8301049050919050565b600082821b905092915050565b6000600883026117367fffffffffffffffffffffffffffffffffffffffffffffffffffffffffffffffff826116f9565b61174086836116f9565b95508019841693508086168417925050509392505050565b600061177361176e61176984611087565b610d93565b611087565b9050919050565b6000819050919050565b61178d83611758565b6117a16117998261177a565b848454611706565b825550505050565b600090565b6117b66117a9565b6117c1818484611784565b505050565b5b818110156117e5576117da6000826117ae565b6001810190506117c7565b5050565b601f82111561182a576117fb816116d4565b611804846116e9565b81016020851015611813578190505b61182761181f856116e9565b8301826117c6565b50505b505050565b600082821c905092915050565b600061184d6000198460080261182f565b1980831691505092915050565b6000611866838361183c565b9150826002028217905092915050565b61187f82611274565b67ffffffffffffffff81111561189857611897610e3c565b5b6118a282546116a3565b6118ad8282856117e9565b600060209050601f8311600181146118e057600084156118ce578287015190505b6118d8858261185a565b865550611940565b601f1984166118ee866116d4565b60005b82811015611916578489015182556001820191506020850194506020810190506118f1565b86831015611933578489015161192f601f89168261183c565b8355505b6001600288020188555050505b505050505050565b600081519050919050565b600082825260208201905092915050565b6000819050602082019050919050565b61197d81610d57565b82525050565b600061198f8383611974565b60208301905092915050565b6000602082019050919050565b60006119b382611948565b6119bd8185611953565b93506119c883611964565b8060005b838110156119f95781516119e08882611983565b97506119eb8361199b565b9250506001810190506119cc565b5085935050505092915050565b60006040820190508181036000830152611a2081856112ba565b90508181036020830152611a3481846119a8565b90509392505050565b7f48616e7961206f776e65722079616e67206469697a696e6b616e000000000000600082015250565b6000611a73601a8361127f565b9150611a7e82611a3d565b602082019050919050565b60006020820190508181036000830152611aa281611a66565b9050919050565b7f4c61677520746964616b20646974656d756b616e000000000000000000000000600082015250565b6000611adf60148361127f565b9150611aea82611aa9565b602082019050919050565b60006020820190508181036000830152611b0e81611ad2565b9050919050565b7f48616e7961206f7261636c652079616e67206469697a696e6b616e0000000000600082015250565b6000611b4b601b8361127f565b9150611b5682611b15565b602082019050919050565b60006020820190508181036000830152611b7a81611b3e565b9050919050565b7f4a756d6c61682073747265616d2068617275732062657274616d626168000000600082015250565b6000611bb7601d8361127f565b9150611bc282611b81565b602082019050919050565b60006020820190508181036000830152611be681611baa565b9050919050565b60006040820190508181036000830152611c0781856112ba565b9050611c1660208301846112f3565b9392505050565b6000611c2882611087565b9150611c3383611087565b9250828202611c4181611087565b91508282048414831517611c5857611c576115a5565b5b5092915050565b7f4e487b7100000000000000000000000000000000000000000000000000000000600052601260045260246000fd5b6000611c9982611087565b9150611ca483611087565b925082611cb457611cb3611c5f565b5b828204905092915050565b6000604082019050611cd46000830185610d69565b611ce160208301846112f3565b9392505050565b611cf181611302565b8114611cfc57600080fd5b50565b600081519050611d0e81611ce8565b92915050565b600060208284031215611d2a57611d29610e17565b5b6000611d3884828501611cff565b91505092915050565b7f5472616e7366657220676167616c000000000000000000000000000000000000600082015250565b6000611d77600e8361127f565b9150611d8282611d41565b602082019050919050565b60006020820190508181036000830152611da681611d6a565b9050919050565b60006060820190508181036000830152611dc781866112ba565b9050611dd66020830185610d69565b611de360408301846112f3565b94935050505056fea2646970667358221220d51b6864117fbdc8ac282ad08aa74a4cce9eae157e78535aa125f5dd64ae377864736f6c634300081c0033",
  "linkReferences": {},
  "deployedLinkReferences": {}
}