{
  "_format": "hh-sol-artifact-1",
  "contractName": "MockERC20",
  "sourceName": "contracts/MockERC20.sol",
  "abi": [
    {
      "inputs": [
        {
          "internalType": "string",
          "name": "_name",
          "type": "string"
        },
        {
          "internalType": "string",
          "name": "_symbol",
          "type": "string"
        },
        {
          "internalType": "uint8",
          "name": "_decimals",
          "type": "uint8"
        }
      ],
      "stateMutability": "nonpayable",
      "type": "constructor"
    },
    {
      "inputs": [
        {
          "internalType": "address",
          "name": "",
          "type": "address"
        }
      ],
      "name": "balanceOf",
      "outputs": [
        {
          "internalType": "uint256",
          "name": "",
          "type": "uint256"
        }
      ],
      "stateMutability": "view",
      "type": "function"
    },
    {
      "inputs": [],
      "name": "decimals",
      "outputs": [
        {
          "internalType": "uint8",
          "name": "",
          "type": "uint8"
        }
      ],
      "stateMutability": "view",
      "type": "function"
    },
    {
      "inputs": [
        {
          "internalType": "address",
          "name": "to",
          "type": "address"
        },
        {
          "internalType": "uint256",
          "name": "amount",
          "type": "uint256"
        }
      ],
      "name": "mint",
      "outputs": [],
      "stateMutability": "nonpayable",
      "type": "function"
    },
    {
      "inputs": [],
      "name": "name",
      "outputs": [
        {
          "internalType": "string",
          "name": "",
          "type": "string"
        }
      ],
      "stateMutability": "view",
      "type": "function"
    },
    {
      "inputs": [],
      "name": "symbol",
      "outputs": [
        {
          "internalType": "string",
          "name": "",
          "type": "string"
        }
      ],
      "stateMutability": "view",
      "type": "function"
    },
    {
      "inputs": [
        {
          "internalType": "address",
          "name": "to",
          "type": "address"
        },
        {
          "internalType": "uint256",
          "name": "amount",
          "type": "uint256"
        }
      ],
      "name": "transfer",
      "outputs": [
        {
          "internalType": "bool",
          "name": "",
          "type": "bool"
        }
      ],
      "stateMutability": "nonpayable",
      "type": "function"
    }
  ],
  "bytecode": "0x608060405234801561001057600080fd5b50604051610db0380380610db083398181016040528101906100329190610223565b826000908161004191906104cf565b50816001908161005191906104cf565b5080600260006101000a81548160ff021916908360ff1602179055505050506105a1565b6000604051905090565b600080fd5b600080fd5b600080fd5b600080fd5b6000601f19601f8301169050919050565b7f4e487b7100000000000000000000000000000000000000000000000000000000600052604160045260246000fd5b6100dc82610093565b810181811067ffffffffffffffff821117156100fb576100fa6100a4565b5b80604052505050565b600061010e610075565b905061011a82826100d3565b919050565b600067ffffffffffffffff82111561013a576101396100a4565b5b61014382610093565b9050602081019050919050565b60005b8381101561016e578082015181840152602081019050610153565b60008484015250505050565b600061018d6101888461011f565b610104565b9050828152602081018484840111156101a9576101a861008e565b5b6101b4848285610150565b509392505050565b600082601f8301126101d1576101d0610089565b5b81516101e184826020860161017a565b91505092915050565b600060ff82169050919050565b610200816101ea565b811461020b57600080fd5b50565b60008151905061021d816101f7565b92915050565b60008060006060848603121561023c5761023b61007f565b5b600084015167ffffffffffffffff81111561025a57610259610084565b5b610266868287016101bc565b935050602084015167ffffffffffffffff81111561028757610286610084565b5b610293868287016101bc565b92505060406102a48682870161020e565b9150509250925092565b600081519050919050565b7f4e487b7100000000000000000000000000000000000000000000000000000000600052602260045260246000fd5b6000600282049050600182168061030057607f821691505b602082108103610313576103126102b9565b5b50919050565b60008190508160005260206000209050919050565b60006020601f8301049050919050565b600082821b905092915050565b60006008830261037b7fffffffffffffffffffffffffffffffffffffffffffffffffffffffffffffffff8261033e565b610385868361033e565b95508019841693508086168417925050509392505050565b6000819050919050565b6000819050919050565b60006103cc6103c76103c28461039d565b6103a7565b61039d565b9050919050565b6000819050919050565b6103e6836103b1565b6103fa6103f2826103d3565b84845461034b565b825550505050565b600090565b61040f610402565b61041a8184846103dd565b505050565b5b8181101561043e57610433600082610407565b600181019050610420565b5050565b601f8211156104835761045481610319565b61045d8461032e565b8101602085101561046c578190505b6104806104788561032e565b83018261041f565b50505b505050565b600082821c905092915050565b60006104a660001984600802610488565b1980831691505092915050565b60006104bf8383610495565b9150826002028217905092915050565b6104d8826102ae565b67ffffffffffffffff8111156104f1576104f06100a4565b5b6104fb82546102e8565b610506828285610442565b600060209050601f8311600181146105395760008415610527578287015190505b61053185826104b3565b865550610599565b601f19841661054786610319565b60005b8281101561056f5784890151825560018201915060208501945060208101905061054a565b8683101561058c5784890151610588601f891682610495565b8355505b6001600288020188555050505b505050505050565b610800806105b06000396000f3fe608060405234801561001057600080fd5b50600436106100625760003560e01c806306fdde0314610067578063313ce5671461008557806340c10f19146100a357806370a08231146100bf57806395d89b41146100ef578063a9059cbb1461010d575b600080fd5b61006f61013d565b60405161007c91906104a8565b60405180910390f35b61008d6101cb565b60405161009a91906104e6565b60405180910390f35b6100bd60048036038101906100b8919061059a565b6101de565b005b6100d960048036038101906100d491906105da565b610238565b6040516100e69190610616565b60405180910390f35b6100f7610250565b60405161010491906104a8565b60405180910390f35b6101276004803603810190610122919061059a565b6102de565b604051610134919061064c565b60405180910390f35b6000805461014a90610696565b80601f016020809104026020016040519081016040528092919081815260200182805461017690610696565b80156101c35780601f10610198576101008083540402835291602001916101c3565b820191906000526020600020905b8154815290600101906020018083116101a657829003601f168201915b505050505081565b600260009054906101000a900460ff1681565b80600360008473ffffffffffffffffffffffffffffffffffffffff1673ffffffffffffffffffffffffffffffffffffffff168152602001908152602001600020600082825461022d91906106f6565b925050819055505050565b60036020528060005260406000206000915090505481565b6001805461025d90610696565b80601f016020809104026020016040519081016040528092919081815260200182805461028990610696565b80156102d65780601f106102ab576101008083540402835291602001916102d6565b820191906000526020600020905b8154815290600101906020018083116102b957829003601f168201915b505050505081565b600081600360003373ffffffffffffffffffffffffffffffffffffffff1673ffffffffffffffffffffffffffffffffffffffff168152602001908152602001600020541015610362576040517f08c379a000000000000000000000000000000000000000000000000000000000815260040161035990610776565b60405180910390fd5b81600360003373ffffffffffffffffffffffffffffffffffffffff1673ffffffffffffffffffffffffffffffffffffffff16815260200190815260200160002060008282546103b19190610796565b9250508190555081600360008573ffffffffffffffffffffffffffffffffffffffff1673ffffffffffffffffffffffffffffffffffffffff168152602001908152602001600020600082825461040791906106f6565b925050819055506001905092915050565b600081519050919050565b600082825260208201905092915050565b60005b83811015610452578082015181840152602081019050610437565b60008484015250505050565b6000601f19601f8301169050919050565b600061047a82610418565b6104848185610423565b9350610494818560208601610434565b61049d8161045e565b840191505092915050565b600060208201905081810360008301526104c2818461046f565b905092915050565b600060ff82169050919050565b6104e0816104ca565b82525050565b60006020820190506104fb60008301846104d7565b92915050565b600080fd5b600073ffffffffffffffffffffffffffffffffffffffff82169050919050565b600061053182610506565b9050919050565b61054181610526565b811461054c57600080fd5b50565b60008135905061055e81610538565b92915050565b6000819050919050565b61057781610564565b811461058257600080fd5b50565b6000813590506105948161056e565b92915050565b600080604083850312156105b1576105b0610501565b5b60006105bf8582860161054f565b92505060206105d085828601610585565b9150509250929050565b6000602082840312156105f0576105ef610501565b5b60006105fe8482850161054f565b91505092915050565b61061081610564565b82525050565b600060208201905061062b6000830184610607565b92915050565b60008115159050919050565b61064681610631565b82525050565b6000602082019050610661600083018461063d565b92915050565b7f4e487b7100000000000000000000000000000000000000000000000000000000600052602260045260246000fd5b600060028204905060018216806106ae57607f821691505b6020821081036106c1576106c0610667565b5b50919050565b7f4e487b7100000000000000000000000000000000000000000000000000000000600052601160045260246000fd5b600061070182610564565b915061070c83610564565b9250828201905080821115610724576107236106c7565b5b92915050565b7f53616c646f20746964616b2063756b7570000000000000000000000000000000600082015250565b6000610760601183610423565b915061076b8261072a565b602082019050919050565b6000602082019050818103600083015261078f81610753565b9050919050565b60006107a182610564565b91506107ac83610564565b92508282039050818111156107c4576107c36106c7565b5b9291505056fea2646970667358221220a91282c7bfc3db0f6ff61dc68d39b2e664dc85a3fdbd1b7b449a020946fb7c2864736f6c634300081c0033",
  "linkReferences": {},
  "deployedLinkReferences": {}
}